{
  "contractName": "EtherBandBattlesManager",
  "abi": [
    {
      "constant": true,
      "inputs": [
        {
          "name": "",
          "type": "uint256"
        },
        {
          "name": "",
          "type": "uint256"
        }
      ],
      "name": "s_mapGameIdToPlayers",
      "outputs": [
        {
          "name": "",
          "type": "address"
        }
      ],
      "payable": false,
      "stateMutability": "view",
      "type": "function"
    },
    {
      "constant": true,
      "inputs": [
        {
          "name": "",
          "type": "bytes32"
        }
      ],
      "name": "s_mapPendingPaymentsByGame",
      "outputs": [
        {
          "name": "clientReferenceTimestamp",
          "type": "uint256"
        },
        {
          "name": "gameId",
          "type": "uint256"
        },
        {
          "name": "videoId",
          "type": "bytes32"
        },
        {
          "name": "payeeAddr",
          "type": "address"
        },
        {
          "name": "paymentAmountGwei",
          "type": "uint256"
        },
        {
          "name": "paymentType",
          "type": "uint8"
        }
      ],
      "payable": false,
      "stateMutability": "view",
      "type": "function"
    },
    {
      "constant": true,
      "inputs": [
        {
          "name": "",
          "type": "address"
        }
      ],
      "name": "s_mapAddressToTotalBalance",
      "outputs": [
        {
          "name": "",
          "type": "uint256"
        }
      ],
      "payable": false,
      "stateMutability": "view",
      "type": "function"
    },
    {
      "constant": true,
      "inputs": [],
      "name": "s_lastGameIdCreated",
      "outputs": [
        {
          "name": "",
          "type": "uint256"
        }
      ],
      "payable": false,
      "stateMutability": "view",
      "type": "function"
    },
    {
      "constant": false,
      "inputs": [],
      "name": "unpause",
      "outputs": [],
      "payable": false,
      "stateMutability": "nonpayable",
      "type": "function"
    },
    {
      "constant": true,
      "inputs": [
        {
          "name": "",
          "type": "uint256"
        },
        {
          "name": "",
          "type": "uint256"
        }
      ],
      "name": "s_mapGameIdToGameResults",
      "outputs": [
        {
          "name": "isExists",
          "type": "bool"
        },
        {
          "name": "roundNum",
          "type": "uint256"
        },
        {
          "name": "videoId",
          "type": "bytes32"
        },
        {
          "name": "ownerId",
          "type": "bytes32"
        },
        {
          "name": "winnerAddr",
          "type": "address"
        },
        {
          "name": "bandAddr",
          "type": "address"
        }
      ],
      "payable": false,
      "stateMutability": "view",
      "type": "function"
    },
    {
      "constant": true,
      "inputs": [],
      "name": "paused",
      "outputs": [
        {
          "name": "",
          "type": "bool"
        }
      ],
      "payable": false,
      "stateMutability": "view",
      "type": "function"
    },
    {
      "constant": false,
      "inputs": [],
      "name": "pause",
      "outputs": [],
      "payable": false,
      "stateMutability": "nonpayable",
      "type": "function"
    },
    {
      "constant": true,
      "inputs": [],
      "name": "owner",
      "outputs": [
        {
          "name": "",
          "type": "address"
        }
      ],
      "payable": false,
      "stateMutability": "view",
      "type": "function"
    },
    {
      "constant": true,
      "inputs": [],
      "name": "s_numGamesCreatedAsId",
      "outputs": [
        {
          "name": "",
          "type": "uint256"
        }
      ],
      "payable": false,
      "stateMutability": "view",
      "type": "function"
    },
    {
      "constant": true,
      "inputs": [
        {
          "name": "",
          "type": "bytes32"
        }
      ],
      "name": "s_mapOwnerIdToEscrowAmount",
      "outputs": [
        {
          "name": "",
          "type": "uint256"
        }
      ],
      "payable": false,
      "stateMutability": "view",
      "type": "function"
    },
    {
      "constant": true,
      "inputs": [
        {
          "name": "",
          "type": "uint256"
        }
      ],
      "name": "s_mapGameIdToGame",
      "outputs": [
        {
          "name": "isExists",
          "type": "bool"
        },
        {
          "name": "requestNonce",
          "type": "bytes32"
        },
        {
          "name": "id",
          "type": "uint256"
        },
        {
          "name": "gameState",
          "type": "uint8"
        },
        {
          "name": "houseAddr",
          "type": "address"
        },
        {
          "name": "entryFeeGwei",
          "type": "uint256"
        },
        {
          "name": "bandDonationPercent",
          "type": "uint256"
        },
        {
          "name": "gameCreatorAddr",
          "type": "address"
        },
        {
          "name": "gameCreatorVideoId",
          "type": "bytes32"
        },
        {
          "name": "videoPlatformId",
          "type": "uint8"
        },
        {
          "name": "numPlayers",
          "type": "uint256"
        },
        {
          "name": "gameBalance",
          "type": "uint256"
        },
        {
          "components": [
            {
              "name": "totalhousePaymentGwei",
              "type": "uint256"
            },
            {
              "name": "totalPlayerPayments",
              "type": "uint256"
            },
            {
              "name": "totalBandPaymentsOrEscrows",
              "type": "uint256"
            }
          ],
          "name": "gamePaymentsSummary",
          "type": "tuple"
        }
      ],
      "payable": false,
      "stateMutability": "view",
      "type": "function"
    },
    {
      "constant": true,
      "inputs": [
        {
          "name": "",
          "type": "bytes32"
        }
      ],
      "name": "s_mapPendingPaymentList",
      "outputs": [
        {
          "name": "isExists",
          "type": "bool"
        },
        {
          "components": [
            {
              "name": "clientReferenceTimestamp",
              "type": "uint256"
            },
            {
              "name": "gameId",
              "type": "uint256"
            },
            {
              "name": "videoId",
              "type": "bytes32"
            },
            {
              "name": "payeeAddr",
              "type": "address"
            },
            {
              "name": "paymentAmountGwei",
              "type": "uint256"
            },
            {
              "name": "paymentType",
              "type": "uint8"
            }
          ],
          "name": "pendingPaymentDetails",
          "type": "tuple"
        },
        {
          "name": "linkToPreviousPayee",
          "type": "bytes32"
        },
        {
          "name": "linkToNextPayee",
          "type": "bytes32"
        }
      ],
      "payable": false,
      "stateMutability": "view",
      "type": "function"
    },
    {
      "constant": false,
      "inputs": [
        {
          "name": "newOwner",
          "type": "address"
        }
      ],
      "name": "transferOwnership",
      "outputs": [],
      "payable": false,
      "stateMutability": "nonpayable",
      "type": "function"
    },
    {
      "constant": true,
      "inputs": [
        {
          "name": "",
          "type": "bytes32"
        }
      ],
      "name": "s_mapRequestNonceToGameId",
      "outputs": [
        {
          "name": "",
          "type": "uint256"
        }
      ],
      "payable": false,
      "stateMutability": "view",
      "type": "function"
    },
    {
      "anonymous": false,
      "inputs": [],
      "name": "Pause",
      "type": "event"
    },
    {
      "anonymous": false,
      "inputs": [],
      "name": "Unpause",
      "type": "event"
    },
    {
      "anonymous": false,
      "inputs": [
        {
          "indexed": true,
          "name": "previousOwner",
          "type": "address"
        },
        {
          "indexed": true,
          "name": "newOwner",
          "type": "address"
        }
      ],
      "name": "OwnershipTransferred",
      "type": "event"
    },
    {
      "constant": false,
      "inputs": [
        {
          "name": "_gameId",
          "type": "uint256"
        },
        {
          "name": "_playerAddr",
          "type": "address"
        },
        {
          "name": "_videoId",
          "type": "bytes32"
        }
      ],
      "name": "addPlayer",
      "outputs": [],
      "payable": true,
      "stateMutability": "payable",
      "type": "function"
    },
    {
      "constant": false,
      "inputs": [
        {
          "name": "_gameId",
          "type": "uint256"
        },
        {
          "name": "_roundNum",
          "type": "uint256"
        },
        {
          "name": "_videoId",
          "type": "bytes32"
        },
        {
          "name": "_ownerId",
          "type": "bytes32"
        },
        {
          "name": "_winnerAddr",
          "type": "address"
        },
        {
          "name": "_bandAddr",
          "type": "address"
        }
      ],
      "name": "addGameRoundResult",
      "outputs": [],
      "payable": false,
      "stateMutability": "nonpayable",
      "type": "function"
    },
    {
      "constant": false,
      "inputs": [
        {
          "name": "_clientReferenceTimestamp",
          "type": "uint256"
        },
        {
          "name": "_gameId",
          "type": "uint256"
        }
      ],
      "name": "finalizeGame",
      "outputs": [],
      "payable": false,
      "stateMutability": "nonpayable",
      "type": "function"
    },
    {
      "constant": false,
      "inputs": [
        {
          "name": "_gameId",
          "type": "uint256"
        },
        {
          "name": "_videoId",
          "type": "bytes32"
        },
        {
          "name": "_payeeAddr",
          "type": "address"
        }
      ],
      "name": "claimPayment",
      "outputs": [],
      "payable": false,
      "stateMutability": "nonpayable",
      "type": "function"
    },
    {
      "constant": false,
      "inputs": [
        {
          "name": "_ownerId",
          "type": "bytes32"
        },
        {
          "name": "_payeeAddr",
          "type": "address"
        }
      ],
      "name": "claimEscrow",
      "outputs": [],
      "payable": false,
      "stateMutability": "nonpayable",
      "type": "function"
    },
    {
      "constant": true,
      "inputs": [
        {
          "name": "_requestNonce",
          "type": "bytes32"
        }
      ],
      "name": "getGameId",
      "outputs": [
        {
          "name": "",
          "type": "uint256"
        }
      ],
      "payable": false,
      "stateMutability": "view",
      "type": "function"
    },
    {
      "constant": true,
      "inputs": [
        {
          "name": "_gameId",
          "type": "uint256"
        }
      ],
      "name": "getNumGameRoundResults",
      "outputs": [
        {
          "name": "",
          "type": "uint256"
        }
      ],
      "payable": false,
      "stateMutability": "view",
      "type": "function"
    },
    {
      "constant": true,
      "inputs": [
        {
          "name": "_gameId",
          "type": "uint256"
        }
      ],
      "name": "getGameState",
      "outputs": [
        {
          "name": "",
          "type": "uint8"
        }
      ],
      "payable": false,
      "stateMutability": "view",
      "type": "function"
    },
    {
      "constant": true,
      "inputs": [
        {
          "name": "_gameId",
          "type": "uint256"
        }
      ],
      "name": "getNumPlayers",
      "outputs": [
        {
          "name": "",
          "type": "uint256"
        }
      ],
      "payable": false,
      "stateMutability": "view",
      "type": "function"
    },
    {
      "constant": true,
      "inputs": [
        {
          "name": "_gameId",
          "type": "uint256"
        },
        {
          "name": "_roundNum",
          "type": "uint256"
        }
      ],
      "name": "getIsGameRoundResultPosted",
      "outputs": [
        {
          "name": "",
          "type": "bool"
        }
      ],
      "payable": false,
      "stateMutability": "view",
      "type": "function"
    },
    {
      "constant": true,
      "inputs": [
        {
          "name": "_gameId",
          "type": "uint256"
        }
      ],
      "name": "getIsGameReadyToBeFinalized",
      "outputs": [
        {
          "name": "",
          "type": "bool"
        }
      ],
      "payable": false,
      "stateMutability": "view",
      "type": "function"
    },
    {
      "constant": true,
      "inputs": [
        {
          "name": "_gameId",
          "type": "uint256"
        },
        {
          "name": "_playerAddr",
          "type": "address"
        }
      ],
      "name": "getIsPlayerInGame",
      "outputs": [
        {
          "name": "",
          "type": "bool"
        }
      ],
      "payable": false,
      "stateMutability": "view",
      "type": "function"
    },
    {
      "constant": true,
      "inputs": [
        {
          "name": "_gameId",
          "type": "uint256"
        }
      ],
      "name": "getIsHouseAddrSet",
      "outputs": [
        {
          "name": "",
          "type": "bool"
        }
      ],
      "payable": false,
      "stateMutability": "view",
      "type": "function"
    },
    {
      "constant": true,
      "inputs": [
        {
          "name": "_gameId",
          "type": "uint256"
        },
        {
          "name": "_payeeAddr",
          "type": "address"
        }
      ],
      "name": "getPlayerBalance",
      "outputs": [
        {
          "name": "",
          "type": "uint256"
        }
      ],
      "payable": false,
      "stateMutability": "view",
      "type": "function"
    },
    {
      "constant": true,
      "inputs": [],
      "name": "getPendingPaymentCount",
      "outputs": [
        {
          "name": "",
          "type": "uint256"
        }
      ],
      "payable": false,
      "stateMutability": "view",
      "type": "function"
    },
    {
      "constant": true,
      "inputs": [
        {
          "name": "_paymentNdx",
          "type": "uint256"
        }
      ],
      "name": "getNextPendingPaymentDetails",
      "outputs": [
        {
          "name": "",
          "type": "uint256"
        },
        {
          "name": "",
          "type": "uint256"
        },
        {
          "name": "",
          "type": "bytes32"
        },
        {
          "name": "",
          "type": "address"
        },
        {
          "name": "",
          "type": "uint256"
        },
        {
          "name": "",
          "type": "uint256"
        }
      ],
      "payable": false,
      "stateMutability": "view",
      "type": "function"
    },
    {
      "constant": true,
      "inputs": [
        {
          "name": "_gameId",
          "type": "uint256"
        }
      ],
      "name": "getGamePaymentsSummary",
      "outputs": [
        {
          "name": "",
          "type": "uint256"
        },
        {
          "name": "",
          "type": "uint256"
        },
        {
          "name": "",
          "type": "uint256"
        }
      ],
      "payable": false,
      "stateMutability": "view",
      "type": "function"
    },
    {
      "constant": false,
      "inputs": [
        {
          "name": "_requestNonce",
          "type": "bytes32"
        },
        {
          "name": "_entryFeeGwei",
          "type": "uint256"
        },
        {
          "name": "_bandDonationPercent",
          "type": "uint256"
        },
        {
          "name": "_gameCreatorAddr",
          "type": "address"
        },
        {
          "name": "_gameCreatorVideoId",
          "type": "bytes32"
        },
        {
          "name": "_videoPlatformId",
          "type": "uint8"
        }
      ],
      "name": "makeGame",
      "outputs": [],
      "payable": true,
      "stateMutability": "payable",
      "type": "function"
    },
    {
      "constant": false,
      "inputs": [
        {
          "name": "_gameId",
          "type": "uint256"
        },
        {
          "name": "_houseAddr",
          "type": "address"
        }
      ],
      "name": "setHouseAddress",
      "outputs": [],
      "payable": false,
      "stateMutability": "nonpayable",
      "type": "function"
    },
    {
      "constant": false,
      "inputs": [
        {
          "name": "_gameId",
          "type": "uint256"
        }
      ],
      "name": "startGame",
      "outputs": [],
      "payable": false,
      "stateMutability": "nonpayable",
      "type": "function"
    },
    {
      "constant": true,
      "inputs": [],
      "name": "getNumGamesCreated",
      "outputs": [
        {
          "name": "",
          "type": "uint256"
        }
      ],
      "payable": false,
      "stateMutability": "view",
      "type": "function"
    },
    {
      "constant": true,
      "inputs": [],
      "name": "testReturnTuple",
      "outputs": [
        {
          "name": "",
          "type": "address"
        },
        {
          "name": "",
          "type": "uint256"
        }
      ],
      "payable": false,
      "stateMutability": "pure",
      "type": "function"
    },
    {
      "constant": true,
      "inputs": [],
      "name": "testViewMethodAsSendMethod",
      "outputs": [
        {
          "name": "",
          "type": "address"
        }
      ],
      "payable": false,
      "stateMutability": "view",
      "type": "function"
    },
    {
      "constant": false,
      "inputs": [
        {
          "name": "_hashedMessage",
          "type": "bytes32"
        },
        {
          "name": "_v",
          "type": "uint8"
        },
        {
          "name": "_r",
          "type": "bytes32"
        },
        {
          "name": "_s",
          "type": "bytes32"
        }
      ],
      "name": "testEcRecovery",
      "outputs": [
        {
          "name": "",
          "type": "address"
        }
      ],
      "payable": false,
      "stateMutability": "nonpayable",
      "type": "function"
    },
    {
      "constant": true,
      "inputs": [],
      "name": "getLastTestEcRecoverResults",
      "outputs": [
        {
          "name": "",
          "type": "bytes32"
        },
        {
          "name": "",
          "type": "uint8"
        },
        {
          "name": "",
          "type": "bytes32"
        },
        {
          "name": "",
          "type": "bytes32"
        },
        {
          "name": "",
          "type": "address"
        },
        {
          "name": "",
          "type": "address"
        }
      ],
      "payable": false,
      "stateMutability": "view",
      "type": "function"
    },
    {
      "constant": false,
      "inputs": [
        {
          "name": "_payeeAddr",
          "type": "address"
        }
      ],
      "name": "testPayment",
      "outputs": [],
      "payable": true,
      "stateMutability": "payable",
      "type": "function"
    }
  ],
  "bytecode": "0x608060405260008054600160a060020a033316600160a860020a0319909116179055615314806100306000396000f3006080604052600436106101f85763ffffffff7c010000000000000000000000000000000000000000000000000000000060003504166315284af881146101fd578063238d87151461023457806325b1a81f1461025057806328fdff14146102bb5780632b2528f9146102ee578063325ad1e91461030657806332d5b0411461033e57806334836ea3146103915780633cc5df98146103a65780633f4ba83a146103be578063495d4140146103d357806350ffd631146103ee57806355f66c4714610444578063563c7ae51461045c5780635c975abb146104b857806374a10019146104cd5780638456cb59146104e55780638a9f62bb146104fa5780638aa05ee6146105215780638da5cb5b14610545578063967379861461055a57806397051f651461056f578063a134933314610593578063a6f9bd89146105ab578063a8c2e980146105c3578063ae71395f146105e7578063b1064e2f1461061a578063b23381861461062e578063c75e33e7146106de578063d4c21e98146106f3578063d5cb2e4d14610719578063da7ee2151461074f578063dac8102f1461078f578063e5ed1d59146107aa578063e71e6bd8146107c2578063ed935430146107d7578063f2fde38b146107ec578063f922757d1461080d578063fa93d96414610845578063ff76b33e14610869578063ffde0c7414610881575b600080fd5b34801561020957600080fd5b506102186004356024356108bd565b60408051600160a060020a039092168252519081900360200190f35b61024e600435600160a060020a03602435166044356108f4565b005b34801561025c57600080fd5b50610268600435610c27565b6040805187815260208101879052908101859052600160a060020a03841660608201526080810183905260a081018260058111156102a257fe5b60ff168152602001965050505050505060405180910390f35b3480156102c757600080fd5b506102dc600160a060020a0360043516610c6b565b60408051918252519081900360200190f35b3480156102fa57600080fd5b506102dc600435610c7d565b34801561031257600080fd5b5061032a600435600160a060020a0360243516610d57565b604080519115158252519081900360200190f35b34801561034a57600080fd5b50610356600435610f1d565b60408051968752602087019590955285850193909352600160a060020a039091166060850152608084015260a0830152519081900360c00190f35b34801561039d57600080fd5b506102dc6110cd565b3480156103b257600080fd5b5061032a6004356110d3565b3480156103ca57600080fd5b5061024e611250565b3480156103df57600080fd5b5061032a6004356024356112ca565b3480156103fa57600080fd5b5061040361146f565b6040805196875260ff9095166020870152858501939093526060850191909152600160a060020a0390811660808501521660a0830152519081900360c00190f35b34801561045057600080fd5b506102dc60043561149c565b34801561046857600080fd5b50610477600435602435611575565b6040805196151587526020870195909552858501939093526060850191909152600160a060020a0390811660808501521660a0830152519081900360c00190f35b3480156104c457600080fd5b5061032a6115d9565b3480156104d957600080fd5b506102dc6004356115e9565b3480156104f157600080fd5b5061024e6115fe565b34801561050657600080fd5b5061024e600435602435600160a060020a036044351661167d565b34801561052d57600080fd5b5061024e600435600160a060020a0360243516611b5c565b34801561055157600080fd5b50610218611d6e565b34801561056657600080fd5b506102dc611d7d565b34801561057b57600080fd5b5061021860043560ff60243516604435606435611d83565b34801561059f57600080fd5b506102dc600435611fb8565b3480156105b757600080fd5b5061032a600435611fca565b3480156105cf57600080fd5b5061024e600435600160a060020a03602435166120c4565b3480156105f357600080fd5b5061024e600435602435604435606435600160a060020a0360843581169060a43516612334565b61024e600160a060020a0360043516612881565b34801561063a57600080fd5b506106466004356129fe565b604080518e15158152602081018e90529081018c9052606081018b600481111561066c57fe5b60ff168152600160a060020a03808c166020830152604082018b9052606082018a90528816608082015260a0810187905260c00185600c8111156106ac57fe5b60ff1681526020018481526020018381526020018281526020019d505050505050505050505050505060405180910390f35b3480156106ea57600080fd5b506102dc612a9b565b61024e600435602435604435600160a060020a036064351660843560ff60a43516612ac7565b34801561072557600080fd5b50610731600435612b18565b60408051938452602084019290925282820152519081900360600190f35b34801561075b57600080fd5b50610767600435612c7b565b6040805194151585526020850193909352838301919091526060830152519081900360800190f35b34801561079b57600080fd5b5061024e600435602435612d13565b3480156107b657600080fd5b5061024e6004356132cf565b3480156107ce57600080fd5b506102dc613692565b3480156107e357600080fd5b50610218613698565b3480156107f857600080fd5b5061024e600160a060020a036004351661369c565b34801561081957600080fd5b50610822613727565b60408051600160a060020a03909316835260208301919091528051918290030190f35b34801561085157600080fd5b506102dc600435600160a060020a0360243516613731565b34801561087557600080fd5b506102dc600435613898565b34801561088d57600080fd5b506108996004356138aa565b604051808260048111156108a957fe5b60ff16815260200191505060405180910390f35b6008602052816000526040600020818154811015156108d857fe5b600091825260209091200154600160a060020a03169150829050565b8280151561093a576040805160e560020a62461bcd0281526020600482015260186024820152600080516020615289833981519152604482015290519081900360640190fd5b60008181526002602052604090205460ff1615156001146109b4576040805160e560020a62461bcd02815260206004820152604160248201526000805160206152c983398151915260448201526000805160206152a9833981519152606482015260f960020a601702608482015290519081900360a40190fd5b600160008281526002602052604090206003015460ff1660048111156109d657fe5b14610a3c576040805160e560020a62461bcd02815260206004820152602560248201527f5468652067616d65206973206e6f7420696e2074686520435245415445442073604482015260d960020a643a30ba329702606482015290519081900360840190fd5b60005460a060020a900460ff1615610a5357600080fd5b600160a060020a0383161515610ad9576040805160e560020a62461bcd02815260206004820152603160248201527f28616464506c61796572292054686520706c617965722061646472657373206d60448201527f757374206e6f7420626520656d7074792e000000000000000000000000000000606482015290519081900360840190fd5b600084815260026020526040902060040154341015610b8e576040805160e560020a62461bcd02815260206004820152604360248201527f28616464506c61796572292054686520656e7472792066656520676976656e2060448201527f6973206c657373207468616e20746861742073657420666f722074686520676160648201527f6d652e0000000000000000000000000000000000000000000000000000000000608482015290519081900360a40190fd5b6000848152600260205260409020600a0154610bb0903463ffffffff6138e416565b6000858152600260208181526040808420600a810195909555600882528320805460018082018355918552828520018054600160a060020a031916600160a060020a038a161790559288905252600990910154610c0c916138e4565b60009485526002602052604090942060090193909355505050565b6004602081905260009182526040909120805460018201546002830154600384015494840154600590940154929491939092600160a060020a039092169160ff1686565b60056020526000908152604090205481565b600081801515610cc5576040805160e560020a62461bcd0281526020600482015260186024820152600080516020615289833981519152604482015290519081900360640190fd5b60008181526002602052604090205460ff161515600114610d3f576040805160e560020a62461bcd02815260206004820152604160248201526000805160206152c983398151915260448201526000805160206152a9833981519152606482015260f960020a601702608482015290519081900360a40190fd5b60008381526007602052604090205491505b50919050565b60008083801515610da0576040805160e560020a62461bcd0281526020600482015260186024820152600080516020615289833981519152604482015290519081900360640190fd5b60008181526002602052604090205460ff161515600114610e1a576040805160e560020a62461bcd02815260206004820152604160248201526000805160206152c983398151915260448201526000805160206152a9833981519152606482015260f960020a601702608482015290519081900360a40190fd5b600160a060020a0384161515610ea0576040805160e560020a62461bcd02815260206004820152603260248201527f286765744973506c61796572496e47616d65292054686520706c61796572206160448201527f646472657373206973206e6f74207365742e0000000000000000000000000000606482015290519081900360840190fd5b600091505b600085815260086020526040902054821015610f105760008581526008602052604090208054600160a060020a038616919084908110610ee157fe5b600091825260209091200154600160a060020a03161415610f055760019250610f15565b600190910190610ea5565b600092505b505092915050565b600080600080600080600080610f316151e5565b6103e88a10610fb0576040805160e560020a62461bcd02815260206004820152602481018290527f5061796d656e7420696e64657820697320657175616c20746f2031303030206f60448201527f7220677265617465722e202054686973206973206e6f7420616c6c6f7765642e606482015290519081900360840190fd5b60009250600b5491505b8983108015610fc857508115155b15610fec576000918252600a60205260409091206008015460019092019190610fba565b81151561100b57600098508897508796508695508594508493506110c1565b600082815260046020818152604092839020835160c081018552815481526001820154928101929092526002810154938201939093526003830154600160a060020a0316606082015290820154608082015260058083015491929160a084019160ff9091169081111561107a57fe5b600581111561108557fe5b815250509050806000015181602001518260400151836060015184608001518560a0015160058111156110b457fe5b9850985098509850985098505b50505091939550919395565b60095481565b60008180151561111b576040805160e560020a62461bcd0281526020600482015260186024820152600080516020615289833981519152604482015290519081900360640190fd5b60008181526002602052604090205460ff161515600114611195576040805160e560020a62461bcd02815260206004820152604160248201526000805160206152c983398151915260448201526000805160206152a9833981519152606482015260f960020a601702608482015290519081900360a40190fd5b600260008281526002602052604090206003015460ff1660048111156111b757fe5b1461121d576040805160e560020a62461bcd02815260206004820152602560248201527f5468652067616d65206973206e6f7420696e2074686520504c4159494e472073604482015260d960020a643a30ba329702606482015290519081900360840190fd5b60008381526007602090815260408083205460089092529091205414156112475760019150610d51565b50600092915050565b60005433600160a060020a0390811691161461126b57600080fd5b60005460a060020a900460ff16151561128357600080fd5b6000805474ff0000000000000000000000000000000000000000191681556040517f7805862f689e2f13df9f062ff482ad3ad112aca9e0847911ed832e158c525b339190a1565b60008083801515611313576040805160e560020a62461bcd0281526020600482015260186024820152600080516020615289833981519152604482015290519081900360640190fd5b60008181526002602052604090205460ff16151560011461138d576040805160e560020a62461bcd02815260206004820152604160248201526000805160206152c983398151915260448201526000805160206152a9833981519152606482015260f960020a601702608482015290519081900360a40190fd5b6000841161140b576040805160e560020a62461bcd02815260206004820152603260248201527f28676574497347616d65526f756e64526573756c74506f737465642920496e7660448201527f616c696420726f756e64206e756d6265722e0000000000000000000000000000606482015290519081900360840190fd5b600091505b600085815260076020526040902054821015610f1057600085815260076020526040902080548591908490811061144357fe5b90600052602060002090600602016001015414156114645760019250610f15565b600190910190611410565b600d54600e54600f5460105460115460125460ff90941693600160a060020a039182169116909192939495565b6000818015156114e4576040805160e560020a62461bcd0281526020600482015260186024820152600080516020615289833981519152604482015290519081900360640190fd5b60008181526002602052604090205460ff16151560011461155e576040805160e560020a62461bcd02815260206004820152604160248201526000805160206152c983398151915260448201526000805160206152a9833981519152606482015260f960020a601702608482015290519081900360a40190fd5b505060009081526002602052604090206009015490565b60076020528160005260406000208181548110151561159057fe5b600091825260209091206006909102018054600182015460028301546003840154600485015460059095015460ff9094169650919450929091600160a060020a03918216911686565b60005460a060020a900460ff1681565b6000818152600360205260409020545b919050565b60005433600160a060020a0390811691161461161957600080fd5b60005460a060020a900460ff161561163057600080fd5b6000805474ff0000000000000000000000000000000000000000191660a060020a1781556040517f6985a02210a168e66602d3235cb6db0e70f92b3ba4d376a33c0f3d9434bff6259190a1565b6116856151e5565b6000805433600160a060020a039081169116146116a157600080fd5b848015156116e7576040805160e560020a62461bcd0281526020600482015260186024820152600080516020615289833981519152604482015290519081900360640190fd5b60008181526002602052604090205460ff161515600114611761576040805160e560020a62461bcd02815260206004820152604160248201526000805160206152c983398151915260448201526000805160206152a9833981519152606482015260f960020a601702608482015290519081900360a40190fd5b600360008281526002602052604090206003015460ff16600481111561178357fe5b146117da576040805160e560020a62461bcd02815260206004820152602760248201526000805160206152698339815191526044820152600080516020615249833981519152606482015290519081900360840190fd5b60005460a060020a900460ff16156117f157600080fd5b600160a060020a0384161515611877576040805160e560020a62461bcd02815260206004820152602c60248201527f28636c61696d5061796d656e742920546865207061796565206164647265737360448201527f206973206e6f74207365742e0000000000000000000000000000000000000000606482015290519081900360840190fd5b8415156118f4576040805160e560020a62461bcd02815260206004820152602760248201527f28636c61696d5061796d656e74292054686520766964656f204944206973206e60448201527f6f74207365742e00000000000000000000000000000000000000000000000000606482015290519081900360840190fd5b6040805160c081018252600080825260208201899052918101879052600160a060020a0386166060820152608081018290529060a08201529250611937836138f7565b6000818152600460208190526040822001546080860181905291935010611a1a576040805160e560020a62461bcd02815260206004820152607460248201527f28636c61696d5061796d656e742920496e2074686520636f6e74657874206f6660448201527f2074686520676976656e2067616d6520616e64207265736f757263652049442c60648201527f2074686520706179656520646f6573206e6f74206861766520616e792066756e60848201527f64732077616974696e6720666f72207468656d2e00000000000000000000000060a482015290519081900360c40190fd5b6080830151600160a060020a033016311015611acc576040805160e560020a62461bcd02815260206004820152605960248201527f28636c61696d5061796d656e74292054686520636f6e747261637420646f657360448201527f206e6f74206861766520656e6f7567682066756e647320746f20636f7665722060648201527f746865207061796d656e7420617420746869732074696d652e00000000000000608482015290519081900360a40190fd5b600082815260046020819052604082208281556001810183905560028101839055600381018054600160a060020a031916905590810191909155600501805460ff19169055611b1a82613afe565b6080830151604051600160a060020a0386169180156108fc02916000818181858888f19350505050158015611b53573d6000803e3d6000fd5b50505050505050565b6000543390600160a060020a03908116908216811480611b7b57600080fd5b84801515611bc1576040805160e560020a62461bcd0281526020600482015260186024820152600080516020615289833981519152604482015290519081900360640190fd5b60008181526002602052604090205460ff161515600114611c3b576040805160e560020a62461bcd02815260206004820152604160248201526000805160206152c983398151915260448201526000805160206152a9833981519152606482015260f960020a601702608482015290519081900360a40190fd5b85600160008281526002602052604090206003015460ff166004811115611c5e57fe5b14611cc4576040805160e560020a62461bcd02815260206004820152602560248201527f5468652067616d65206973206e6f7420696e2074686520435245415445442073604482015260d960020a643a30ba329702606482015290519081900360840190fd5b600160a060020a0386161515611d24576040805160e560020a62461bcd02815260206004820152601a60248201527f54686520686f7573652061646472657373206973207a65726f2e000000000000604482015290519081900360640190fd5b50505060009384525050600260205260409091206003018054600160a060020a039092166101000274ffffffffffffffffffffffffffffffffffffffff0019909216919091179055565b600054600160a060020a031681565b60015481565b604080518082018252601c8082527f19457468657265756d205369676e6564204d6573736167653a0a333200000000602080840191825293516000948593849386938c9301918291908083835b60208310611def5780518252601f199092019160209182019101611dd0565b51815160209384036101000a600019018019909216911617905292019384525060408051808503815293820190819052835193945092839250908401908083835b60208310611e4f5780518252601f199092019160209182019101611e30565b51815160209384036101000a600019018019909216911617905260408051929094018290038220600080845283830180875282905260ff8f1684870152606084018e9052608084018d905294519098506001965060a080840196509194601f19820194509281900390910191865af1158015611ecf573d6000803e3d6000fd5b5050604051601f190151915050600160a060020a0381161515611f62576040805160e560020a62461bcd02815260206004820152603260248201527f5468652065637265636f76657228292066756e6374696f6e206661696c65642e60448201527f20204d616c666f726d656420696e7075743f0000000000000000000000000000606482015290519081900360840190fd5b600d979097555050600e805460ff191660ff9590951694909417909355600f919091556010555060118054600160a060020a0319908116600160a060020a03841690811790925560128054909116909117905590565b60066020526000908152604090205481565b600081801515612012576040805160e560020a62461bcd0281526020600482015260186024820152600080516020615289833981519152604482015290519081900360640190fd5b60008181526002602052604090205460ff16151560011461208c576040805160e560020a62461bcd02815260206004820152604160248201526000805160206152c983398151915260448201526000805160206152a9833981519152606482015260f960020a601702608482015290519081900360a40190fd5b6000838152600260205260409020600301546101009004600160a060020a031615156120bb5760009150610d51565b50600192915050565b6000805433600160a060020a039081169116146120e057600080fd5b60005460a060020a900460ff16156120f757600080fd5b600160a060020a038216151561217d576040805160e560020a62461bcd02815260206004820152602b60248201527f28636c61696d457363726f77292054686520706179656520616464726573732060448201527f6973206e6f74207365742e000000000000000000000000000000000000000000606482015290519081900360840190fd5b50600082815260066020526040812054908111612230576040805160e560020a62461bcd02815260206004820152604b60248201527f28636c61696d457363726f772920546865206f776e657220646f6573206e6f7460448201527f206861766520616e792066756e64732077616974696e6720666f72207468656d60648201527f20696e20657363726f772e000000000000000000000000000000000000000000608482015290519081900360a40190fd5b600083815260066020526040812055600160a060020a033016318111156122ed576040805160e560020a62461bcd02815260206004820152604b60248201527f28636c61696d457363726f77292054686520636f6e747261637420646f65732060448201527f6e6f74206861766520656e6f7567682066756e647320746f20636f766572207460648201527f6865207061796d656e742e000000000000000000000000000000000000000000608482015290519081900360a40190fd5b6040805160c08101825260008082526020820152908101849052600160a060020a03831660608201526080810182905261232f9060a0810160045b9052613dea565b505050565b60008681526002602052604081206003015487906101009004600160a060020a031615156123d2576040805160e560020a62461bcd02815260206004820152602760248201527f54686520486f757365206164647265737320686173206e6f74206265656e207360448201527f6574207965742e00000000000000000000000000000000000000000000000000606482015290519081900360840190fd5b60008181526002602052604090206003015433600160a060020a039081166101009092041614612472576040805160e560020a62461bcd02815260206004820152602c60248201527f4f6e6c792074686520486f7573652063616e207573652074686520646573697260448201527f65642066756e6374696f6e2e0000000000000000000000000000000000000000606482015290519081900360840190fd5b878015156124b8576040805160e560020a62461bcd0281526020600482015260186024820152600080516020615289833981519152604482015290519081900360640190fd5b60008181526002602052604090205460ff161515600114612532576040805160e560020a62461bcd02815260206004820152604160248201526000805160206152c983398151915260448201526000805160206152a9833981519152606482015260f960020a601702608482015290519081900360a40190fd5b600260008281526002602052604090206003015460ff16600481111561255457fe5b146125ba576040805160e560020a62461bcd02815260206004820152602560248201527f5468652067616d65206973206e6f7420696e2074686520504c4159494e472073604482015260d960020a643a30ba329702606482015290519081900360840190fd5b60008811612638576040805160e560020a62461bcd02815260206004820152602a60248201527f2861646447616d65526f756e64526573756c742920496e76616c696420726f7560448201527f6e64206e756d6265722e00000000000000000000000000000000000000000000606482015290519081900360840190fd5b600089815260086020526040902054925082881115612714576040805160e560020a62461bcd028152602060048201526064602482018190527f2861646447616d65526f756e64526573756c742920546865206e756d6265722060448301527f6f6620616c6c6f7765642067616d6520726f756e6420726573756c7473206861908201527f766520616c7265616479206265656e20706f7374656420746f2074686973206760848201527f616d652e0000000000000000000000000000000000000000000000000000000060a482015290519081900360c40190fd5b600160a060020a03851615156127c0576040805160e560020a62461bcd02815260206004820152604360248201527f2861646447616d65526f756e64526573756c742920546865206164647265737360448201527f206f66207468652077696e6e696e6720706c61796572206d757374206265207360648201527f65742e0000000000000000000000000000000000000000000000000000000000608482015290519081900360a40190fd5b5050506000958652600760209081526040808820815160c0810183526001808252818501998a5292810197885260608101968752600160a060020a039586166080820190815294861660a0820190815282548085018455928b529390992098516006909102909801805460ff191698151598909817885595519587019590955592516002860155905160038501559051600484018054600160a060020a03199081169284169290921790559151600590930180549092169216919091179055565b60005433600160a060020a0390811691161461289c57600080fd5b600160a060020a0381161515612922576040805160e560020a62461bcd02815260206004820152602b60248201527f28746573745061796d656e74292054686520706179656520616464726573732060448201527f6973206e6f74207365742e000000000000000000000000000000000000000000606482015290519081900360840190fd5b3415156129c5576040805160e560020a62461bcd02815260206004820152604760248201527f28746573745061796d656e74292054686520616d6f756e74206f662076616c7560448201527f65206163636f6d70616e79696e6720746865207472616e73616374696f6e206960648201527f73207a65726f2e00000000000000000000000000000000000000000000000000608482015290519081900360a40190fd5b604051600160a060020a038216903480156108fc02916000818181858888f193505050501580156129fa573d6000803e3d6000fd5b5050565b60026020818152600092835260409283902080546001820154938201546003830154600484015460058501546006860154600787015460088801546009890154600a8a01548d51606081018f52600b8c01548152600c8c01549c81019c909c52600d909a01549c8b019c909c5260ff9788169b969988871699610100909704600160a060020a03908116999698959794169592949290911692908d565b600b5460009081905b8015610d51576000908152600a6020526040902060080154600190910190612aa4565b6000805460a060020a900460ff1615612adf57600080fd5b60018054612af29163ffffffff6138e416565b600181905560098190559050612b0d87828888888888613ff1565b611b538185856108f4565b6000808083801515612b62576040805160e560020a62461bcd0281526020600482015260186024820152600080516020615289833981519152604482015290519081900360640190fd5b60008181526002602052604090205460ff161515600114612bdc576040805160e560020a62461bcd02815260206004820152604160248201526000805160206152c983398151915260448201526000805160206152a9833981519152606482015260f960020a601702608482015290519081900360a40190fd5b600360008281526002602052604090206003015460ff166004811115612bfe57fe5b14612c55576040805160e560020a62461bcd02815260206004820152602760248201526000805160206152698339815191526044820152600080516020615249833981519152606482015290519081900360840190fd5b505050600091825250600260205260409020600b810154600d820154600c909201549092565b600a602090815260009182526040918290208054835160c08101855260018301805482526002840154948201949094526003830154948101949094526004820154600160a060020a031660608501526005808301546080860152600683015460ff9283169593949260a0850192911690811115612cf457fe5b6005811115612cff57fe5b905250600782015460089092015490919084565b60008080808080808080808a801515612d64576040805160e560020a62461bcd0281526020600482015260186024820152600080516020615289833981519152604482015290519081900360640190fd5b60008181526002602052604090205460ff161515600114612dde576040805160e560020a62461bcd02815260206004820152604160248201526000805160206152c983398151915260448201526000805160206152a9833981519152606482015260f960020a601702608482015290519081900360a40190fd5b600260008281526002602052604090206003015460ff166004811115612e0057fe5b14612e66576040805160e560020a62461bcd02815260206004820152602560248201527f5468652067616d65206973206e6f7420696e2074686520504c4159494e472073604482015260d960020a643a30ba329702606482015290519081900360840190fd5b60005460a060020a900460ff1615612e7d57600080fd5b612e868c6110d3565b1515612f4f576040805160e560020a62461bcd028152602060048201526064602482018190527f2866696e616c697a6547616d652920416c6c207468652067616d6520726f756e60448301527f6420726573756c747320666f72207468652067616d652068617665206e6f7420908201527f6265656e20706f7374656420616e6420636f6e6669726d65642f6d696e65642060848201527f7965742e0000000000000000000000000000000000000000000000000000000060a482015290519081900360c40190fd5b60008c8152600760205260409020549a50612f6b8c600361452c565b5060008c8152600260205260409020600a908101549a50612f93908b9063ffffffff61462b16565b9850612fa689606463ffffffff61465416565b60008d81526002602052604090206003810154600b909101549199506101009004600160a060020a03169750612fdc90896138e4565b60008d815260026020908152604091829020600b0192909255805160c0810182528f81529182018e90527f686f75736500000000000000000000000000000000000000000000000000000090820152600160a060020a0388166060820152608081018990526130509060a081016003612328565b60008c8152600260205260408120600a015489900396508611613109576040805160e560020a62461bcd02815260206004820152605160248201527f2866696e616c697a6547616d6529205468652067616d652062616c616e63652060448201527f61667465722072656d6f76696e672074686520686f7573652070657263656e7460648201527f6167652069732030206f72206c6573732e000000000000000000000000000000608482015290519081900360a40190fd5b60008c815260026020526040812060050154909550859450849350839250151561314757859250613140838c63ffffffff61465416565b91506131e7565b60008c8152600260205260409020600501546064141561317b57859450613174858c63ffffffff61465416565b93506131e7565b60008c8152600260205260409020600501546131ae906131a288606463ffffffff61465416565b9063ffffffff61462b16565b94506131c0858c63ffffffff61465416565b93506131d2868663ffffffff61466916565b92506131e4838c63ffffffff61465416565b91505b60008411806131f65750600082115b1515613298576040805160e560020a62461bcd02815260206004820152605960248201527f2866696e616c697a6547616d652920546865726520617265206e6f207061796d60448201527f656e747320746f206265206d61646520666f7220746869732067616d652c206760648201527f6976656e207468652063757272656e7420616d6f756e74732e00000000000000608482015290519081900360a40190fd5b60008411156132ac576132ac8d8d8661467b565b60008211156132c0576132c08d8d84614b16565b50505050505050505050505050565b600081801515613317576040805160e560020a62461bcd0281526020600482015260186024820152600080516020615289833981519152604482015290519081900360640190fd5b60008181526002602052604090205460ff161515600114613391576040805160e560020a62461bcd02815260206004820152604160248201526000805160206152c983398151915260448201526000805160206152a9833981519152606482015260f960020a601702608482015290519081900360a40190fd5b60008381526002602052604090206003015483906101009004600160a060020a0316151561342f576040805160e560020a62461bcd02815260206004820152602760248201527f54686520486f757365206164647265737320686173206e6f74206265656e207360448201527f6574207965742e00000000000000000000000000000000000000000000000000606482015290519081900360840190fd5b60008181526002602052604090206003015433600160a060020a0390811661010090920416146134cf576040805160e560020a62461bcd02815260206004820152602c60248201527f4f6e6c792074686520486f7573652063616e207573652074686520646573697260448201527f65642066756e6374696f6e2e0000000000000000000000000000000000000000606482015290519081900360840190fd5b83600160008281526002602052604090206003015460ff1660048111156134f257fe5b14613558576040805160e560020a62461bcd02815260206004820152602560248201527f5468652067616d65206973206e6f7420696e2074686520435245415445442073604482015260d960020a643a30ba329702606482015290519081900360840190fd5b60005460a060020a900460ff161561356f57600080fd5b8415156135eb576040805160e560020a62461bcd028152602060048201526024808201527f28737461727447616d6529205468652067616d65204944206d7573742062652060448201527f7365742e00000000000000000000000000000000000000000000000000000000606482015290519081900360840190fd5b60008581526002602052604090205460ff16935083151560011461367f576040805160e560020a62461bcd02815260206004820152603d60248201527f5468652067616d652049442070726f766964656420697320696e76616c69642060448201527f6f722062656c6f6e677320746f20612064656c657465642067616d652e000000606482015290519081900360840190fd5b61368a85600261452c565b505050505050565b60015490565b3390565b60005433600160a060020a039081169116146136b757600080fd5b600160a060020a03811615156136cc57600080fd5b60008054604051600160a060020a03808516939216917f8be0079c531659141344cd1fd0a4f28419497f9722a3daafe3b4186f6b6457e091a360008054600160a060020a031916600160a060020a0392909216919091179055565b6104d261162e9091565b600082801515613779576040805160e560020a62461bcd0281526020600482015260186024820152600080516020615289833981519152604482015290519081900360640190fd5b60008181526002602052604090205460ff1615156001146137f3576040805160e560020a62461bcd02815260206004820152604160248201526000805160206152c983398151915260448201526000805160206152a9833981519152606482015260f960020a601702608482015290519081900360a40190fd5b600160a060020a0383161515613879576040805160e560020a62461bcd02815260206004820152603160248201527f28676574506c6179657242616c616e6365292054686520706c6179657220616460448201527f6472657373206973206e6f74207365742e000000000000000000000000000000606482015290519081900360840190fd5b5050600160a060020a0316600090815260056020526040902054919050565b60036020526000908152604090205481565b60008181526002602052604081205460ff16156138dc575060008181526002602052604090206003015460ff166115f9565b5060006115f9565b818101828110156138f157fe5b92915050565b6020810151600090801515613944576040805160e560020a62461bcd0281526020600482015260186024820152600080516020615289833981519152604482015290519081900360640190fd5b60008181526002602052604090205460ff1615156001146139be576040805160e560020a62461bcd02815260206004820152604160248201526000805160206152c983398151915260448201526000805160206152a9833981519152606482015260f960020a601702608482015290519081900360a40190fd5b600360008281526002602052604090206003015460ff1660048111156139e057fe5b14613a37576040805160e560020a62461bcd02815260206004820152602760248201526000805160206152698339815191526044820152600080516020615249833981519152606482015290519081900360840190fd5b82602001518360400151846060015160405160200180848152602001836000191660001916815260200182600160a060020a0316600160a060020a03166c0100000000000000000000000002815260140193505050506040516020818303038152906040526040518082805190602001908083835b60208310613acb5780518252601f199092019160209182019101613aac565b5181516020939093036101000a600019018019909116921691909117905260405192018290039091209695505050505050565b613b06615218565b613b0e6151e5565b6000838152600a6020526040812054819060ff161515600114613bd4576040805160e560020a62461bcd02815260206004820152606160248201527f2872656d6f7665506169644164647265737346726f6d50656e64696e6750617960448201527f6d656e74734c697374292054686520706179656520616464726573732069732060648201527f6e6f7420696e207468652070656e64696e67207061796d656e7473206c697374608482015260f960020a60170260a482015290519081900360c40190fd5b6000858152600a6020908152604091829020825160808181018552825460ff90811615158352855160c08101875260018501805482526002860154828801526003860154978201979097526004850154600160a060020a03166060820152600580860154938201939093526006850154939694958701949093909260a08501929190911690811115613c6257fe5b6005811115613c6d57fe5b905250815260078201546020808301919091526008909201546040918201528282015160808101516060820151600160a060020a0316600090815260059094529190922054929650909450613cc8919063ffffffff61466916565b606084018051600160a060020a0390811660009081526005602052604080822094909455915116815220541515613d17576060830151600160a060020a03166000908152600560205260408120555b50506000838152600a602052604090206007810154600890910154600b54851415613d4257600b8190555b600c54851415613d5257600c8290555b8115613d6d576000828152600a602052604090206008018190555b8015613d88576000818152600a602052604090206007018290555b505050600091825250600a60205260408120805460ff199081168255600182018390556002820183905560038201839055600482018054600160a060020a03191690556005820183905560068201805490911690556007810182905560080155565b6060810151600090600160a060020a03161515613e77576040805160e560020a62461bcd02815260206004820152602d60248201527f287363686564756c655061796d656e742920546865207061796565206164647260448201527f65737320697320656d7074792e00000000000000000000000000000000000000606482015290519081900360840190fd5b6080820151600010613ef9576040805160e560020a62461bcd02815260206004820152602d60248201527f287363686564756c655061796d656e742920546865207061796d656e7420616d60448201527f6f756e74206973207a65726f2e00000000000000000000000000000000000000606482015290519081900360840190fd5b613f02826138f7565b60008181526004602081815260409283902086518155908601516001808301919091559286015160028201556060860151600382018054600160a060020a031916600160a060020a0390921691909117905560808601519181019190915560a085015160058083018054959650879593949293909260ff19909116918490811115613f8957fe5b0217905550905050613f9b8183614ed7565b5060808201516060830151600160a060020a0316600090815260056020526040902054613fcd9163ffffffff6138e416565b606090920151600160a060020a031660009081526005602052604090209190915550565b85151561406e576040805160e560020a62461bcd02815260206004820152602560248201527f286164644e657747616d6529205468652067616d65204944206d75737420626560448201527f207365742e000000000000000000000000000000000000000000000000000000606482015290519081900360840190fd5b600085116140ec576040805160e560020a62461bcd02815260206004820152603260248201527f286164644e657747616d65292054686520656e74727920666565206d7573742060448201527f62652067726561746572207468616e20302e0000000000000000000000000000606482015290519081900360840190fd5b6064841115614191576040805160e560020a62461bcd02815260206004820152604c60248201527f286164644e657747616d6529205468652062616e6420646f6e6174696f6e207060448201527f657263656e74206d757374206e6f742062652067726561746572207468616e2060648201527f3130302070657263656e742e0000000000000000000000000000000000000000608482015290519081900360a40190fd5b600160a060020a0383161515614217576040805160e560020a62461bcd02815260206004820152603260248201527f286164644e657747616d6529205468652067616d652063726561746f7220616460448201527f6472657373206d757374206265207365742e0000000000000000000000000000606482015290519081900360840190fd5b600081600c81111561422557fe5b116142a0576040805160e560020a62461bcd02815260206004820152602f60248201527f286164644e657747616d65292054686520766964656f20706c6174666f726d2060448201527f4944206d757374206265207365742e0000000000000000000000000000000000606482015290519081900360840190fd5b600c81600c8111156142ae57fe5b1061434f576040805160e560020a62461bcd02815260206004820152604360248201527f286164644e657747616d65292054686520766964656f20706c6174666f726d2060448201527f4944206973206f757473696465207468652061636365707461626c652072616e60648201527f67652e0000000000000000000000000000000000000000000000000000000000608482015290519081900360a40190fd5b604080516101a08101825260018152602081018990529081018790526060810160008152600060208201526040810187905260608101869052600160a060020a038516608082015260a0810184905260c00182600c8111156143ad57fe5b8152600060208083018290526040808401839052805160608181018352848252818401859052818301859052948501528a83526002808352928190208551815490151560ff1991821617825592860151600180830191909155918601519381019390935592840151600383018054939491939092169083600481111561442f57fe5b0217905550608082015160038201805474ffffffffffffffffffffffffffffffffffffffff001916610100600160a060020a0393841681029190911790915560a0840151600484015560c0840151600584015560e0840151600684018054600160a060020a0319169190931617909155820151600782015561012082015160088201805460ff1916600183600c8111156144c557fe5b02179055506101408201516009820155610160820151600a820155610180909101518051600b830155602080820151600c840155604091820151600d9093019290925560008981526003909252902086905561452286600161452c565b5050505050505050565b60008083801515614575576040805160e560020a62461bcd0281526020600482015260186024820152600080516020615289833981519152604482015290519081900360640190fd5b60008181526002602052604090205460ff1615156001146145ef576040805160e560020a62461bcd02815260206004820152604160248201526000805160206152c983398151915260448201526000805160206152a9833981519152606482015260f960020a601702608482015290519081900360a40190fd5b6000858152600260205260409020600301805460ff8116935085919060ff1916600183600481111561461d57fe5b021790555090949350505050565b600082151561463c575060006138f1565b5081810281838281151561464c57fe5b04146138f157fe5b6000818381151561466157fe5b049392505050565b60008282111561467557fe5b50900390565b600080838015156146c4576040805160e560020a62461bcd0281526020600482015260186024820152600080516020615289833981519152604482015290519081900360640190fd5b60008181526002602052604090205460ff16151560011461473e576040805160e560020a62461bcd02815260206004820152604160248201526000805160206152c983398151915260448201526000805160206152a9833981519152606482015260f960020a601702608482015290519081900360a40190fd5b600360008281526002602052604090206003015460ff16600481111561476057fe5b146147b7576040805160e560020a62461bcd02815260206004820152602760248201526000805160206152698339815191526044820152600080516020615249833981519152606482015290519081900360840190fd5b60008581526007602052604081205411614841576040805160e560020a62461bcd02815260206004820152603c60248201527f2870726f6365737342616e645061796d656e747329205468652067616d65207260448201527f6f756e6420726573756c747320617272617920697320656d7074792e00000000606482015290519081900360840190fd5b600084116148bf576040805160e560020a62461bcd02815260206004820152603560248201527f2870726f6365737342616e645061796d656e74732920546865207061796d656e60448201527f7420666f7220656163682062616e6420697320302e0000000000000000000000606482015290519081900360840190fd5b600092505b60008581526007602052604090205483101561368a5760008581526007602052604081208054859081106148f457fe5b50600052602011614975576040805160e560020a62461bcd02815260206004820152602e60248201527f2870726f6365737342616e645061796d656e74732920416e206f776e6572204960448201527f4420776173206e6f74207365742e000000000000000000000000000000000000606482015290519081900360840190fd5b600085815260076020526040902080548490811061498f57fe5b600091825260208083206005600690930201919091015487835260029091526040909120600d0154600160a060020a0390911692506149d4908563ffffffff6138e416565b6000868152600260205260409020600d0155600160a060020a0382161515614a935760008581526007602052604081208054614a4a92879260069288908110614a1957fe5b600091825260208083206003600690930201919091015483528201929092526040019020549063ffffffff6138e416565b60008681526007602052604081208054600692919087908110614a6957fe5b60009182526020808320600360069093020191909101548352820192909252604001902055614b0b565b614b0b60c0604051908101604052808881526020018781526020016007600089815260200190815260200160002086815481101515614ace57fe5b90600052602060002090600602016002015460001916815260200184600160a060020a031681526020018681526020016002600581111561232857fe5b6001909201916148c4565b60008083801515614b5f576040805160e560020a62461bcd0281526020600482015260186024820152600080516020615289833981519152604482015290519081900360640190fd5b60008181526002602052604090205460ff161515600114614bd9576040805160e560020a62461bcd02815260206004820152604160248201526000805160206152c983398151915260448201526000805160206152a9833981519152606482015260f960020a601702608482015290519081900360a40190fd5b600360008281526002602052604090206003015460ff166004811115614bfb57fe5b14614c52576040805160e560020a62461bcd02815260206004820152602760248201526000805160206152698339815191526044820152600080516020615249833981519152606482015290519081900360840190fd5b60008581526007602052604081205411614cdc576040805160e560020a62461bcd02815260206004820152603c60248201527f2870726f6365737342616e645061796d656e747329205468652067616d65207260448201527f6f756e6420726573756c747320617272617920697320656d7074792e00000000606482015290519081900360840190fd5b60008411614d5a576040805160e560020a62461bcd02815260206004820152603960248201527f2870726f63657373506c617965725061796d656e74732920546865207061796d60448201527f656e7420666f72206561636820706c6179657220697320302e00000000000000606482015290519081900360840190fd5b600092505b60008581526007602052604090205483101561368a576000858152600760205260409020805484908110614d8f57fe5b6000918252602090912060046006909202010154600160a060020a03169150811515614e2b576040805160e560020a62461bcd02815260206004820152602481018290527f2870726f63657373506c617965725061796d656e74732920466f756e6420612060448201527f77696e6e65722061646472657373207468617420776173206e6f74207365742e606482015290519081900360840190fd5b6000858152600260205260409020600c0154614e4d908563ffffffff6138e416565b6000868152600260209081526040808320600c0193909355825160c0810184528981528082018990528883526007909152908290208054614ecc938301919087908110614e9657fe5b6000918252602091829020600260069092020101548252600160a060020a03861690820152604081018790526060016001612328565b600190920191614d5f565b6000808260200151111515614f5c576040805160e560020a62461bcd02815260206004820152603360248201527f2861646441646472657373546f50656e64696e675061796d656e74734c69737460448201527f29205468652067616d6520496420697320302e00000000000000000000000000606482015290519081900360840190fd5b6060820151600160a060020a03161515614fe6576040805160e560020a62461bcd02815260206004820152603d60248201527f2861646441646472657373546f50656e64696e675061796d656e74734c69737460448201527f2920546865207061796565206164647265737320697320656d7074792e000000606482015290519081900360840190fd5b6000838152600a602052604090205460ff1615156001141561500a575060006138f1565b600b5415156150f457604080516080818101835260018083526020808401878152600085870181905260608087018290528a8252600a8452908790208651815490151560ff199182161782559251805182870190815594810151600283015597880151600382015590870151600482018054600160a060020a03909216600160a060020a03199092169190911790559386015160058086019190915560a087015160068601805497989697949591949093169184908111156150c857fe5b0217905550505060408201516007820155606090910151600890910155600b839055600c8390556120bb565b600c80546000908152600a6020818152604080842060080188905580516080818101835260018083528285018a815297548385015260608084018890528b8852958552958390208251815490151560ff199182161782559751805182890190815595810151600283015593840151600382015594830151600486018054600160a060020a03909216600160a060020a031990921691909117905582015160058086019190915560a0830151600686018054939896979496919490939091169184908111156151be57fe5b02179055505050604082015160078201556060909101516008909101555050600c55600190565b6040805160c08101825260008082526020820181905291810182905260608101829052608081018290529060a082015290565b60408051610120810190915260008152602081016152346151e5565b81526000602082018190526040909101529056002073746174652e000000000000000000000000000000000000000000000000005468652067616d65206973206e6f7420696e207468652047414d455f4f5645525468652067616d652049442020697320696e76616c69642e0000000000000000642067616d65206f72206f6e65207468617420646f65736e277420657869737454686520494420676976656e2062656c6f6e677320746f20612064656c657465a165627a7a72305820fec67647e283f6d6d3b4006393d9ab9de1c9ef2088e9c002b2b5155aacf50a1d0029",
  "source": "pragma solidity ^0.4.21;\n// pragma solidity ^0.5.0;\n\n// Use these when reverting to non-proxied contract for trace debugging with Truffle console.\nimport \"../node_modules/openzeppelin-solidity/contracts/math/SafeMath.sol\";\nimport \"../node_modules/openzeppelin-solidity/contracts/lifecycle/Pausable.sol\";\n\n// Use these in production to take advantage of Open Zeppelin's ugradeable contract technology.\n//import \"../node_modules/openzeppelin-zos/contracts/math/SafeMath.sol\";\n//import \"../node_modules/openzeppelin-zos/contracts/lifecycle/Pausable.sol\";\n\n/**\n * TODO: Read these notes before making any significant changes to the smart contract\n *      to make sure you understand the main strategies embodied in it.\n *\n *  PLAYER VS BAND PAYMENTS:\n *\n *\n *      PLAYERS\n *\n *      Player payments are facilitated by code that resides in the Node.JS server.\n *      They are submitted to the Ethereum network by that code after a finalizeGame()\n *      call calculates and stores the payments necessary to pay the players in a\n *      a completed game (after that transaction has been confirmed/mined).  Player\n *      payments are added to the pending payments linked list during the finalizeGame()\n *      call.  This is the list (and it's related contract level tracking variables) that\n *      tracks the Ethereum addresses that still require payment by the contract.\n *\n *      BANDS\n *\n *      Band payments, like player payments are also calculated and stored during\n *      the finalizeGame() call.  However, if a band in a game has not put their\n *      Ethereum address in their channel description yet, their payments go into\n *      the structure that stores payments in escrow.  Once the band with escrow\n *      payments has gone through the claim process, any payments due to them\n *      go into the pending payments list and are submitted to the Ethereum\n *      network in the same manner that player payments are made\n */\n\n/**\n * TODO: MAIN ERRORS:\n *\n *\n * TODO: NOTES (Todo Tasks)\n\n * - Later, add code to the addPlayer() function that checks at the top of the\n *  if the player address given is already in the game.  If so, revert the\n *  transaction.  HOWEVER, add code to the web site now that calls the\n *  getIsPlayerInGame() view function and refuses to add the player if so\n *  (i.e. - \"Player X is already in the game.\"\n *\n * - Drizzle?  Nick says it doesn't have to use React.  Probably best to use it\n *  and Redux later after the presentation.\n *\n * - Need delete game method that has a modifier that only allows it to be called if\n *      we are in the game state where the game is over and ALL payments have been\n *      made, including Escrow payments.  (Problem what if there are a lot of\n *      escrow payments lying around after a long time, storage costs?)\n *\n *      Clean up Redis keys too for deleted/completed games.\n *\n * - AFTER THE CONTEST:\n *\n * - Refund failed games (players left, tech issues, etc.)\n *\n * Architectural QUESTIONS:\n *\n * - What will happen to costs and performance when there are thousands of games active at the same time ?\n */\n\n\n/**\n * This is the contract that manages all the games for EtherBandBattles.  Each game is \n *  represented by a single structGame element.  The game server is assumed to be the \n *  contract owner.\n */\n\n\n// ------------------ CONTRACT: EtherBandBattlesManager  -----------------\n\n/// @title The EtherBandBattlesManager factory contract.\n/// @author Robert Oschler\n// TODO: Restore this line.\ncontract EtherBandBattlesManager is Pausable {\n// contract EtherBandBattlesManager{\n\n    // ------------------ USING STATEMENTS ------------------\n    \n    using SafeMath for uint256;    \n    \n    // ------------------ EVENTS ------------------\n\n    /* NO EVENTS FOR NOW.  */\n\n    // ------------------ CONSTANTS     ------------------\n    \n    // --->>> Video Platform IDs\n    \n    // These are the IDs that tell us, which video platform the videos in \n    //  the game are source from.  (E.g. - YouTube).\n    // NOTE: These table and its equivalent in the Javascript code that\n    //  lives in the web site project MUST match (i.e. - must stay in sync)!\n    \n    // We start at 1 because we want to make sure the caller specifically assigned\n    //  the video platform ID, and since 0 is the default value for a uint, that\n    //  indicates the caller forgot to set it or made some other kind of mistake.\n    enum EnumVideoPlatforms {\n        NOTSET,\n        YOUTUBE,\n        TWITTER,\n        NETFLIX,\n        VIMEO,\n        YAHOO,\n        DAILYMOTION,\n        HULU,\n        VUBE,\n        TWITCH,\n        INSTAGRAM,\n        KIK,\n        // Update this video platform ID as we add new platforms.  We use this to \n        //  check the validity of the video platform ID.\n        OUT_OF_RANGE\n    }\n\t\t\n    // --->>> Game state.\n\t\n    // NOTE: These table and its equivalent in the Javascript code that\n    //  lives in the web site project MUST match (i.e. - must stay in sync)!\n\tenum EnumGameState\n\t{\n\t    // Game state has not been set.  Usually indicates an error on the part of the programmer.\n\t    NOTSET,\n\t\t// The game has been created and is waiting for players, but has not \n\t\t//  been started yet.\n\t\tCREATED,\n\t\t// The game has started and is underway, and will not accept any new players. \t\t\n\t\tPLAYING,\n\t\t// The game is over.\n\t\tGAME_OVER,  \t\t\n\t\t// Update this game state value as we add new states, if ever.  We use this to \t\t\n\t\t//  check the validity of a new game state assignment. \t\t\n\t\tOUT_OF_RANGE\n\t}\n    \n    // --->>> Payment type.\n\n\tenum EnumPaymentType\n\t{\n\t    // The payment type has not been set.  Usually indicates an error on the part of the programmer.\n\t    NOTSET,\n\t\t// A player payment.\n\t\tPLAYER,\n\t\t// A band payment\n\t\tBAND,\n\t\t// A House payment.\n\t\tHOUSE,\n\t\t// A transfer from escrow to the the pending payments list (i.e. - the scheduling of an\n\t\t//  escrow payment.\n\t\tESCROW_TRANSFER,\n\t\t// Update this game state value as we add new states, if ever.  We use this to\n\t\t//  check the validity of a new game state assignment.\n\t\tOUT_OF_RANGE\n\t}\n\n    // --->>> Game IDs.\n    \n    // We do not allow a game ID to be 0.  That way we know if a game ID was \n    //  not initialized.\n    uint256 constant id_invalid = 0;\n    \n    // --->>> House percentage.\n    uint256 constant pct_house = 10;\n\n    // ------------------ STORAGE VARIABLES -----------------\n    \n    // This variable tracks the number of games created and also servers as a unique \n    //  ID for each game.\n    uint256 public s_numGamesCreatedAsId;\n    \n    // The map that maps a game ID to a specific game.\n    mapping(uint256 => structGame) public s_mapGameIdToGame;\n    \n    // The map that maps a request nonce to a game ID.\n    mapping (bytes32 => uint256) public s_mapRequestNonceToGameId;\n    \n    // The map that tracks individual payments tied to a particular game ID.  The\n    //  mapping key is a hash of certain fields belonging to a\n    //  structPendingPaymentDetails element.\n    mapping (bytes32 => structPendingPaymentDetails) public s_mapPendingPaymentsByGame;\n    \n    // The map that tracks how much Ether is due to a particular address, whether that\n    //  address is a player or a band, for a particular game.  It allows us to quickly\n    //  report the total balance due to any particular address.\n    mapping (address => uint256) public s_mapAddressToTotalBalance;\n\n    // The map that tracks how much Ether is due to a particular owner ID.  This is the\n    //  \"escrow\" storage.\n    mapping (bytes32 => uint256) public s_mapOwnerIdToEscrowAmount;\n    \n    // The game rounds for a game are stored here.\n    mapping (uint256 => structGameRoundResults[]) public s_mapGameIdToGameResults;\n\n    // The players for a game are stored here.\n    mapping (uint256 => address[]) public s_mapGameIdToPlayers;\n\n    // The total number of games ever created with this version of the contract.\n    uint256 public s_lastGameIdCreated;\n\n    // The linked list that keeps track of pending payments.  The mapping key is a\n    //  hash of a structPendingPaymentDetails element.\n    mapping (bytes32 => structPendingPaymentLinkRec) public s_mapPendingPaymentList;\n\n    // The hash of the ID Of the first pending payment in the pending payments linked list.  This element\n    //  will be 0 if there are no pending payments.\n    bytes32 s_firstPendingPaymentKey;\n    \n    // The hash of the ID of the last pending payment in the pending payments linked list.  This element\n    //  will be 0 if there are no pending payments.\n    bytes32 s_lastPendingPaymentKey;\n\n    // ------------------ MODIFIERS -----------------\n    // --->>> GAME STATES\n    // @notice Game states - These modifiers are used to ensure that certain functions \n    //  are only called at the right time.\n\n    /// This modified is only used for debugging.  It assigns various values we want to\n    ///     inspect to local variables so we can view them with the Truffle debugger.\n    modifier onlyToDebug() {\n        address msgSender = msg.sender;\n        address contractOwner = owner;\n\n        bool senderEqualsOwner = (msgSender == contractOwner);\n        _;\n    }\n    \n    /// @param _gameId - a valid game ID.\n    modifier onlyIfCreatedState(uint256 _gameId) {\n        // TODO: Debugging.\n        // uint thePlayingStateVal = uint(s_mapGameIdToGame[_gameId].gameState);\n\n        require(s_mapGameIdToGame[_gameId].gameState == EnumGameState.CREATED, \"The game is not in the CREATED state.\");\n        _;\n    }\n    \n    /// @param _gameId - a valid game ID.\n    modifier onlyIfPlayingState(uint256 _gameId) {\n        // TODO: Debugging.\n        // uint thePlayingStateVal = uint(s_mapGameIdToGame[_gameId].gameState);\n\n        require(s_mapGameIdToGame[_gameId].gameState == EnumGameState.PLAYING, \"The game is not in the PLAYING state.\");\n        _;\n    }\n    \n    /// @param _gameId - a valid game ID.\n    modifier onlyIfGameOverState(uint256 _gameId) {\n        // TODO: Debugging.\n        // uint thePlayingStateVal = uint(s_mapGameIdToGame[_gameId].gameState);\n\n        require(s_mapGameIdToGame[_gameId].gameState == EnumGameState.GAME_OVER, \"The game is not in the GAME_OVER state.\");\n        _;\n    }\n    \n    // --->>> Enforce that the house public address has been set for the game and that\n    //      if it has been set, make sure that the sender of the current transaction is\n    //      that address.\n    /// @param _gameId - a valid game ID.\n    modifier onlyIfHouseAddrSetAndIsSender(uint256 _gameId) {\n\n        require(s_mapGameIdToGame[_gameId].houseAddr != address(0), \"The House address has not been set yet.\");\n        require(msg.sender == s_mapGameIdToGame[_gameId].houseAddr, \"Only the House can use the desired function.\");\n        _;\n    }\n    \n    /// --->>> Make sure the game ID has been explicitly set and does not belong to a deleted game.\n    /// @param _gameId - a valid game ID.\n    modifier onlyIfValidGameId(uint256 _gameId) {\n        // TODO: Debugging code.\n        // uint256 inputGameId = _gameId;\n        // bool isExistingGame = s_mapGameIdToGame[_gameId].isExists;\n\n        // Make sure the game ID has been explicitly set.\n        require(_gameId != id_invalid, \"The game ID  is invalid.\");\n        // Make sure the game has not been deleted.\n        require(s_mapGameIdToGame[_gameId].isExists == true, \"The ID given belongs to a deleted game or one that doesn't exist.\");\n        _;\n    }\n\n    // Extra modifiers to the functionality of other modifiers together to solve \"stack too deep\" errors.  The\n    //  following modifiers only accept a valid game ID and only if the game with the given ID is in a specific\n    //  state.\n    modifier onlyIfValidGameIdAndPlayingState(uint256 _gameId)\n    {\n        // Make sure the game ID has been explicitly set.\n        require(_gameId != id_invalid, \"The game ID  is invalid.\");\n\n        // Make sure the game has not been deleted.\n        require(s_mapGameIdToGame[_gameId].isExists == true, \"The ID given belongs to a deleted game or one that doesn't exist.\");\n\n        // Make sure we are in the PLAYING state.\n        require(s_mapGameIdToGame[_gameId].gameState == EnumGameState.PLAYING, \"The game is not in the PLAYING state.\");\n        _;\n    }\n\n    modifier onlyIfValidGameIdAndCreatedState(uint256 _gameId)\n    {\n        // Make sure the game ID has been explicitly set.\n        require(_gameId != id_invalid, \"The game ID  is invalid.\");\n\n        // Make sure the game has not been deleted.\n        require(s_mapGameIdToGame[_gameId].isExists == true, \"The ID given belongs to a deleted game or one that doesn't exist.\");\n\n        // Make sure we are in the PLAYING state.\n        require(s_mapGameIdToGame[_gameId].gameState == EnumGameState.CREATED, \"The game is not in the CREATED state.\");\n        _;\n    }\n\n    modifier onlyIfValidGameIdAndGameOverState(uint256 _gameId)\n    {\n        // Make sure the game ID has been explicitly set.\n        require(_gameId != id_invalid, \"The game ID  is invalid.\");\n\n        // Make sure the game has not been deleted.\n        require(s_mapGameIdToGame[_gameId].isExists == true, \"The ID given belongs to a deleted game or one that doesn't exist.\");\n\n        // Make sure we are in the PLAYING state.\n        require(s_mapGameIdToGame[_gameId].gameState == EnumGameState.GAME_OVER, \"The game is not in the GAME_OVER state.\");\n        _;\n    }\n\n    // ======================== BEGIN: NON-ZOS ===================================\n    \n    // TODO: Comment the elements below out when returning to ZOS version.\n\n    /*\n    address public s_ourOwner;\n    bool public s_ourPause = false;\n  \n    /**\n     * @dev Throws if called by any account other than the owner.\n     *\n    modifier onlyOwner() {\n        require(msg.sender == s_ourOwner);\n        _;\n    }\n    \n    /**\n     * @dev Modifier to make a function callable only when the contract is not paused.\n     *\n    modifier whenNotPaused() {\n        require(!s_ourPause);\n        _;\n    }\n\n    constructor() public {\n        s_ourOwner = msg.sender;\n    }\n    */\n\n    // ======================== END  : NON-ZOS ===================================\n        \n        \n    // ------------------ STRUCTS: PER-GAME -----------------\n\n    \n    // This struct holds the results of one round of pla in the game.\n    struct structGameRoundResults {\n        // -------------- winner calculations & payments ------------\n\n        // We use this field to test for an element's existence, to make sure\n        //  a map key doesn't represent a deleted or non-existent element.\n        //  NOTE: This means when you create a new game struct you must\n        //  set this field to TRUE.\n        bool isExists;\n\n        // The ordinal game round number that this result belongs to.\n        uint256 roundNum;\n        \n        // The ID of the video that was played during the round.\n        bytes32 videoId;\n        \n        // The owner ID for the entity that owns the video.\n        bytes32 ownerId;\n        \n        // The address of the player that won the round.\n        address winnerAddr;\n        \n        // The address of the band that the video belongs to.  May be 0 \n        //  if we don't have it yet.\n        address bandAddr;\n    }\n\n    // The struct that keeps a summary of the payments made for a game.\n    struct structGamePayments {\n        // The amount paid to the House for the game.\n        uint256 totalhousePaymentGwei;\n\n        // The amount paid out to all players in the game when it was finalized.\n        uint256 totalPlayerPayments;\n\n        // The amount paid out or stored in escrow to/for all the bands in\n        //  the game when it was finalized.\n        uint256 totalBandPaymentsOrEscrows;\n    }\n    \n    // The struct that holds a particular game.\n    struct structGame {\n        // We use this field to test for an element's existence, to make sure \n        //  a map key doesn't represent a deleted or non-existent element.\n        //  NOTE: This means when you create a new game struct you must \n        //  set this field to TRUE.\n        bool isExists;\n        \n        // The request nonce that was given to the make game request that \n        //  created us.\n        bytes32 requestNonce;\n        \n        // Our ID.\n        uint256 id;\n        \n        // The current state or phase the game is in.  See the game state \n        //  constants above.\n        EnumGameState gameState;\n        \n        // The House address.  \n        address houseAddr;\n        \n        // The entry fee each player must pay to enter the game.  The sum of these\n        //  fees form the \"pool\" of funds that later will be distributed to the \n        //  bands whose videos were submitted to this game, and the participating\n        //  players.\n        uint256 entryFeeGwei;\n        \n        // The percentage of the funds remaining after the House percentage is taken out \n        //  that goes directly to the bands, split evenly amongst them.  This value is \n        //  chosen by the player that created the game.\n        uint256 bandDonationPercent;\n        \n        // The address of the player that created the game.\n        address gameCreatorAddr;\n\n        // The ID of the video the game creator submitted.\n        bytes32 gameCreatorVideoId;\n        \n        // The ID of the video platform the videos in this game are source from.\n        // See the game state constants above.\n        EnumVideoPlatforms videoPlatformId;\n\n        // The number of players added to the game.\n        uint256 numPlayers;\n        \n        // The game balance.  That is, the total amount of Ether contributed to \n        //  the game by all the players.\n        uint256 gameBalance;\n\n        // -------------------- GAME ACCOUNTING ---------------\n\n        structGamePayments gamePaymentsSummary;\n    } // struct structGame\n\n    // This struct groups the information necessary for a pending\n    //  payment.  A hash of the non payment amount fields are used as a to the key to\n    //  mappings involved with pending payments.  This struct is also used field within\n    //  the pending payments record.\n    struct structPendingPaymentDetails {\n        // The reference date/time assigned to us during the finalizeGame() call that\n        //  is passed to that method by the client.\n        uint256 clientReferenceTimestamp;\n\n        // The ID of the game the payment is associated with.\n        uint256 gameId;\n\n        // If the pending payments record belongs to a band, than this is the\n        //  ID of the entity that owns the video that represented the band in\n        //  game.  (e.g. - The channel ID of a YouTube video if a YouTube\n        //  video represented the band during the game.\n        // bytes32 ownerId;\n\n        // If the pending payments record belongs to a band, than this is the\n        //  ID of the video that this payment is for.\n        bytes32 videoId;\n\n        // The Ethereum address to be paid.\n        address payeeAddr;\n\n        // The amount of the payment.\n        uint256 paymentAmountGwei;\n\n        // The payment type.\n        EnumPaymentType paymentType;\n    } // structPendingPaymentDetails\n\n    // The struct that is one record in the linked list that tracks pending payments.\n    struct structPendingPaymentLinkRec {\n        // We use this field to test for an element's existence, to make sure\n        //  a map key doesn't represent a deleted or non-existent element.\n        //  NOTE: This means when you create a new game struct you must\n        //  set this field to TRUE.\n        bool isExists;\n\n        // The pending payment details.\n        structPendingPaymentDetails pendingPaymentDetails;\n\n        // The hash of the pending payment details payee address that will be paid BEFORE this one.\n        //  This field's payee address field (and others) will be 0 if this is the first\n        //  pending payment in the list.\n        bytes32 linkToPreviousPayee;\n        // The hash of the pending payment details payee address that will be paid AFTER this one.\n        //  This field's payee address field (and others) will be 0 if this is the first\n        //  pending payment in the list.\n        bytes32 linkToNextPayee;\n    } // structPendingPaymentLinkRec\n\n    /** @notice This function hashes the 3 fields that create a unique ID for each pending\n     *      payment in order to build a unique key for all the mappings that work with\n     *      pending payments.\n     *\n     * @return - Returns the hash of the 3 fields that create a unique ID for the given\n     *  pending payment details structure.\n     */\n    function hashPendingPaymentDetails(structPendingPaymentDetails memory _pendingPaymentDetails)\n        private view\n        onlyIfValidGameIdAndGameOverState(_pendingPaymentDetails.gameId)\n        returns (bytes32) {\n\n        return keccak256(abi.encodePacked(_pendingPaymentDetails.gameId, _pendingPaymentDetails.videoId, _pendingPaymentDetails.payeeAddr));\n    }\n\n\n    // --------------------- FUNCTIONS: PER-GAME ---------------------------\n\n    /** @dev - Do not change the state of a game directly.  Use this function\n     *  to change a game's state since it also emits an event to report the\n     *  state change.\n     */\n    function changeGameState(uint256 _gameId, EnumGameState newState)\n            private\n            onlyIfValidGameId(_gameId) returns (EnumGameState) {\n        EnumGameState oldState = s_mapGameIdToGame[_gameId].gameState;\n        s_mapGameIdToGame[_gameId].gameState = newState;\n\n        // Emit a game state changed event.\n        // emit NewGameState(_gameId, newState);\n\n        return oldState;\n    }\n\n    /**\n     * @notice Add a new player to the game.  Callable only by the House.\n     * \n     * @param _gameId - The ID Of the game that the new player should be added to.\n     * @param _playerAddr - The address of the new player.\n     * @param _videoId - The ID of the video the player submitted\n     *  for the game.\n     * \n     * STATE: The game must be in the CREATED state to add players.  Once the game\n     *  begins, no new players are allowed.\n     */\n    function addPlayer(uint256 _gameId, address _playerAddr, bytes32 _videoId)\n            public payable\n            onlyIfValidGameIdAndCreatedState(_gameId)\n            whenNotPaused {\n        // Parameter validation.\n        require(_playerAddr != address(0), \"(addPlayer) The player address must not be empty.\");\n        require(_videoId.length > 0, \"(addPlayer) The submitted video ID must not be empty.\");\n        // The entry fee paid by the player must be equal to or greater than the entry \n        //  fee set for the game.\n        require(msg.value >= s_mapGameIdToGame[_gameId].entryFeeGwei, \"(addPlayer) The entry fee given is less than that set for the game.\");\n        \n        // --->>> All field modifications need to reference the correct game.\n       \n        // keep track of the total amount of Ether contributed to this game.\n        s_mapGameIdToGame[_gameId].gameBalance =\n            s_mapGameIdToGame[_gameId].gameBalance.add(msg.value);\n\n        // Add the player to the map that maintains a list of all the\n        //  players in a game.\n        s_mapGameIdToPlayers[_gameId].push(_playerAddr);\n\n        // Increment the count of players added to the game.\n        s_mapGameIdToGame[_gameId].numPlayers = s_mapGameIdToGame[_gameId].numPlayers.add(1);\n\n        // Emit the event that tells others about the new player being added.\n        // emit NewPlayer(_gameId, s_mapGameIdToGame[_gameId].numPlayers);\n    }\n    \n    /**\n     * @notice Add the results of a round of play to the game.\n\n     * NOTE: Any attempt to add more game round results to the game than there are\n     *  rounds will be rejected.\n     *\n     * @param _roundNum - The ordinal game round number this result belongs to.\n     *  Should always be greater than 0 since we rely on 0 to indicate the\n     *  submission of an uninitialized and therefore game round number.\n     * @param _gameId - The ID Of the game that the new player should be added to.\n     * @param _roundNum - The ordinal round number that was just played.  1-based so\n     *  the value given MUST be greater than 0.\n     * @param _videoId - The ID of the video that was played during the round.\n     * @param _ownerId - The ID of the entity that the video belongs to.\n     * @param _winnerAddr - The address of the player that won the round.\n     * @param _bandAddr - The address of the band the video belongs to.  May be 0 \n     *  if we don't have it yet.'\n     * \n     * STATE: The game must be in the PLAYING state to add game round results and the sender\n     *  must be the house address (which is usually the game server).\n     */\n    function addGameRoundResult(uint256 _gameId, uint256 _roundNum, bytes32 _videoId, bytes32 _ownerId, address _winnerAddr, address _bandAddr)\n            public\n            onlyIfHouseAddrSetAndIsSender(_gameId)\n            onlyIfValidGameIdAndPlayingState(_gameId) {\n\n        // Parameter validation.\n        require(_roundNum > 0, \"(addGameRoundResult) Invalid round number.\");\n        // We use the number of players as a proxy for the number of rounds in a game.\n        //  The given round number must be less than or equal to the number of rounds in\n        //  a game.\n        uint256 numRoundsInAGame = s_mapGameIdToPlayers[_gameId].length;\n        require(_roundNum <= numRoundsInAGame, \"(addGameRoundResult) The number of allowed game round results have already been posted to this game.\");\n        require(_videoId.length > 0, \"(addGameRoundResult) The video ID must be set.\");\n        require(_ownerId.length > 0, \"(addGameRoundResult) The owner ID must be set.\");\n        require(_winnerAddr != address(0), \"(addGameRoundResult) The address of the winning player must be set.\");\n\n        // --->>> All field modifications need to reference the correct game.\n        s_mapGameIdToGameResults[_gameId].push(\n            structGameRoundResults(\n                true,\n                _roundNum,\n                _videoId,\n                _ownerId,\n                _winnerAddr,\n                _bandAddr));\n\n        // Emit the event that tells others about the new game round result being added\n        //  to the game.\n        // emit NewGameRoundResult(_gameId, s_mapGameIdToGame[_gameId].numPlayers, s_mapGameIdToGameResults[_gameId].length);\n    }\n    \n    \n    /** @notice This function adds an address to the pending payment linked list.  If a\n     *   record already exists for the given payee address, the call is ignored.\n     *\n     * @param _mapKey - The key to the pending payment record.\n     * @param _pendingPaymentDetails - The payment details for the payee.\n     *\n     * @return - Returns TRUE if a change occurred to the linked list due to the\n     *  addition of the given payee address as a new record.  It returns FALSE if\n     *  the payee address was already in the list.\n     */\n    function addAddressToPendingPaymentsList(\n            bytes32 _mapKey,\n            structPendingPaymentDetails memory _pendingPaymentDetails\n        )\n            private returns(bool) {\n        require(_pendingPaymentDetails.gameId > 0, '(addAddressToPendingPaymentsList) The game Id is 0.');\n        require(_pendingPaymentDetails.payeeAddr != address(0), '(addAddressToPendingPaymentsList) The payee address is empty.');\n\n        // Do we have an existing record?  We must not add more than one record to the\n        //  linked list or the list will be invalid.\n        if (s_mapPendingPaymentList[_mapKey].isExists == true)\n            return false; // Payee address already exists.  Just get out.\n\n        // Are there any pending payments?\n        if (s_firstPendingPaymentKey == \"\") {\n            // ------------- FIRST PAYMENT -----------\n            // No.  This is the first.  Add it.\n            s_mapPendingPaymentList[_mapKey] =\n                structPendingPaymentLinkRec(\n                    true,\n                    _pendingPaymentDetails,\n                    \"\",\n                    \"\");\n\n            // Set the first and last pending payment pointers to this one.\n            s_firstPendingPaymentKey = _mapKey;\n            s_lastPendingPaymentKey = _mapKey;\n        }\n        else {\n            // ------------- NOT FIRST PAYMENT -----------\n\n            // Yes, there are existing payment payments.  Add this new payment to the\n            //  end of the linked list and adjust the tracking variables as necessary.\n\n            // Set the next pending payment field in the current last element to this one.\n            s_mapPendingPaymentList[s_lastPendingPaymentKey].linkToNextPayee = _mapKey;\n\n            // Add the new pending payment, with it's previous payment field set to the\n            //  current last payment, and it's next payment field set to 0 since\n            //  currently there are no pending payments after this one.\n            s_mapPendingPaymentList[_mapKey] =\n                structPendingPaymentLinkRec(\n                    true,\n                    _pendingPaymentDetails,\n                    s_lastPendingPaymentKey,\n                    \"\");\n\n            // Adjust the last pending payment tracker to this new one.\n            s_lastPendingPaymentKey = _mapKey;\n        }\n\n        return true; // The linked list was modified with a new record for the new payee address.\n    }\n\n     /** @notice This function adds an address to the pending payment linked list.\n     *\n     * @param _mapKey - The key to the pending payment record.\n     */\n    function removePaidAddressFromPendingPaymentsList(\n            bytes32 _mapKey\n        )\n            private {\n        // Does the address exist in the pending payments list?  If not, that is an error.  We should\n        //  not have been called.\n        require(s_mapPendingPaymentList[_mapKey].isExists == true, '(removePaidAddressFromPendingPaymentsList) The payee address is not in the pending payments list.');\n\n        structPendingPaymentLinkRec memory pendingPaymentLinkRec = s_mapPendingPaymentList[_mapKey];\n        structPendingPaymentDetails memory pendingPaymentDetails = pendingPaymentLinkRec.pendingPaymentDetails;\n\n        // Update the total balance due the associated Ethereum public address (payee address).\n        s_mapAddressToTotalBalance[pendingPaymentDetails.payeeAddr] =\n            s_mapAddressToTotalBalance[pendingPaymentDetails.payeeAddr].sub(\n                pendingPaymentDetails.paymentAmountGwei);\n\n        // If the total balance is now 0, delete the element.\n        if (s_mapAddressToTotalBalance[pendingPaymentDetails.payeeAddr] == 0)\n            delete s_mapAddressToTotalBalance[pendingPaymentDetails.payeeAddr];\n\n        bytes32 keyLinkToPreviousPayee = s_mapPendingPaymentList[_mapKey].linkToPreviousPayee;\n        bytes32 keyLinkToNextPayee = s_mapPendingPaymentList[_mapKey].linkToNextPayee;\n\n        // Update the variables that track the first and last payments in the list as needed.\n\n        // If we were the first pending payment in the list, update the pending payment tracking\n        //  variable that tracks the first pending payment to point to the one that followed\n        //  the one being deleted since it is now the first payment.\n        if (s_firstPendingPaymentKey == _mapKey)\n            s_firstPendingPaymentKey = keyLinkToNextPayee;\n\n        // If we were the last pending payment in the list, update the the tracking\n        //  variable that tracks the last pending payment to point to the one that\n        //  preceded the one being deleted since it is now the last.\n        if (s_lastPendingPaymentKey == _mapKey)\n            s_lastPendingPaymentKey = keyLinkToPreviousPayee;\n\n        // Is the payment preceded by another payment in the linked list?\n        if (keyLinkToPreviousPayee != \"\")\n            // Yes. Set the next payment field in the previous payment to point\n            //  to the payment that is after the one being deleted.\n            s_mapPendingPaymentList[keyLinkToPreviousPayee].linkToNextPayee = keyLinkToNextPayee;\n\n        // Is the payment followed by another payment in the linked list?\n        if (keyLinkToNextPayee != \"\")\n            // Yes. Set the previous payment field in the next payment to point\n            //  to the payment that is before the one being deleted.\n            s_mapPendingPaymentList[keyLinkToNextPayee].linkToPreviousPayee = keyLinkToPreviousPayee;\n\n        // Delete the mapping entry.  First delete the child structs it contains.\n        s_mapPendingPaymentList[_mapKey].pendingPaymentDetails;\n\n        // Now delete the entry itself.\n        delete s_mapPendingPaymentList[_mapKey];\n    }\n\n    /** @notice This function schedules a payment for the given payee address using the\n     *  given amount in Gwei.\n     *\n     * @dev The game ID will be 0 for escrow payments since we don't track those by game.  An escrow payment\n     *  contains the total sum payments due to the escrow payee.\n     *\n     * @param _pendingPaymentDetails - A valid pending payment details structure.\n     */\n    function schedulePayment(\n            structPendingPaymentDetails memory _pendingPaymentDetails\n        )\n            private {\n        require(_pendingPaymentDetails.payeeAddr != address(0), \"(schedulePayment) The payee address is empty.\");\n        require(_pendingPaymentDetails.paymentAmountGwei > 0, \"(schedulePayment) The payment amount is zero.\");\n\n        // Build the map key.\n        bytes32 mapKey = hashPendingPaymentDetails(_pendingPaymentDetails);\n\n        // Store the payment.\n        s_mapPendingPaymentsByGame[mapKey] = _pendingPaymentDetails;\n\n        // Add the payment to the pending payments list.\n        addAddressToPendingPaymentsList(mapKey, _pendingPaymentDetails);\n\n        // Update the total balance due the associated Ethereum public address (payee address).\n        s_mapAddressToTotalBalance[_pendingPaymentDetails.payeeAddr] =\n            s_mapAddressToTotalBalance[_pendingPaymentDetails.payeeAddr].add(\n                _pendingPaymentDetails.paymentAmountGwei);\n    }\n\n    /**\n     * @notice Process the payments to the band using the results of the game given\n     *  to us earlier by multiple calls to addGameRoundResult().\n     *\n     * NOTE: If an address is not found in the band addresses array, the amount due that\n     *  band is stored in the escrow map instead of the claims map.\n     *\n     * @param _clientReferenceTimestamp - The timestamp the client passed to the\n     *  finalizeGame() method, to be stored with the payment details structure.\n     * @param _gameId - The game ID of the game this payment is associated with.\n     * @param _perBandPayment - The amount to pay each band.\n     */\n    function processBandPayments(\n            uint256 _clientReferenceTimestamp,\n            uint256 _gameId,\n            uint256 _perBandPayment\n        )\n            private\n            onlyIfValidGameIdAndGameOverState(_gameId) {\n        // We should have at least one game round result or something is\n        //  very wrong.\n        require(s_mapGameIdToGameResults[_gameId].length > 0, \"(processBandPayments) The game round results array is empty.\");\n\n        // If the band donation percentage is 0, then this method should not have been called.\n        require(_perBandPayment > 0, \"(processBandPayments) The payment for each band is 0.\");\n\n        // Process each band payment by iterating the game round results.\n        for (uint i = 0; i < s_mapGameIdToGameResults[_gameId].length; i++)\n        {\n            require(s_mapGameIdToGameResults[_gameId][i].ownerId.length > 0, \"(processBandPayments) An owner ID was not set.\");\n\n            address bandAddr = s_mapGameIdToGameResults[_gameId][i].bandAddr;\n\n            // Aggregate the total amount paid or stored in escrow to/for bands in this game.\n            s_mapGameIdToGame[_gameId].gamePaymentsSummary.totalBandPaymentsOrEscrows =\n                s_mapGameIdToGame[_gameId].gamePaymentsSummary.totalBandPaymentsOrEscrows.add(_perBandPayment);\n                \n            // Do we have a band address?\n            if (bandAddr == address(0)) {\n                // No.  Aggregate the payment amount in escrow.\n                s_mapOwnerIdToEscrowAmount[s_mapGameIdToGameResults[_gameId][i].ownerId] =\n                    s_mapOwnerIdToEscrowAmount[s_mapGameIdToGameResults[_gameId][i].ownerId].add(_perBandPayment);\n            }\n            else {\n                // Schedule the payment immediately.\n                schedulePayment(\n                    structPendingPaymentDetails(\n                            _clientReferenceTimestamp,\n                            _gameId,\n                            s_mapGameIdToGameResults[_gameId][i].videoId,\n                            bandAddr,\n                            _perBandPayment,\n                            EnumPaymentType.BAND));\n            }\n        }\n    }\n\n    /** @notice This function processes all the player payments for a game.\n     *\n     * @param _clientReferenceTimestamp - The timestamp the client passed to the\n     *  finalizeGame() method, to be stored with the payment details structure.\n     * @param _gameId - The game ID of the game this payment is associated with.\n     * @param _perVideoPayment - The amount to pay each player for each video they\n     *  won (i.e. - each round in the game they won).\n     */\n    function processPlayerPayments(\n            uint256 _clientReferenceTimestamp,\n            uint256 _gameId,\n            uint256 _perVideoPayment\n        )\n            private\n            onlyIfValidGameIdAndGameOverState(_gameId) {\n\n        // We should have at least one game round result or something is\n        //  very wrong.\n        require(s_mapGameIdToGameResults[_gameId].length > 0, \"(processBandPayments) The game round results array is empty.\");\n        \n        // If the band donation percentage is 100, indicating no money should go to the players, \n        //  then this method should not have been called.\n        require(_perVideoPayment > 0, \"(processPlayerPayments) The payment for each player is 0.\");\n        \n        // Process each player payment by iterating the game round results.\n        for (uint i = 0; i < s_mapGameIdToGameResults[_gameId].length; i++)\n        {\n            address payeeAddr = s_mapGameIdToGameResults[_gameId][i].winnerAddr;\n            require(payeeAddr != address(0), \"(processPlayerPayments) Found a winner address that was not set.\");\n\n            // Aggregate the total amount paid to players in this game.\n            s_mapGameIdToGame[_gameId].gamePaymentsSummary.totalPlayerPayments =\n                s_mapGameIdToGame[_gameId].gamePaymentsSummary.totalPlayerPayments.add(_perVideoPayment);\n\n            // Schedule the payment.\n            schedulePayment(\n                structPendingPaymentDetails(\n                        _clientReferenceTimestamp,\n                        _gameId,\n                        s_mapGameIdToGameResults[_gameId][i].videoId,\n                        payeeAddr,\n                        _perVideoPayment,\n                        EnumPaymentType.PLAYER));\n        }\n    }\n\n    \n    /**\n     * @notice Determine the payments to the bands and players by calculating and then storing\n     *  the amount due them in the claims map.  For bands that we don't find an\n     *  address for in the band addresses array, put the amount in escrow \n     *  for them, using the owner ID associated with a given ID as the escrow \n     *  key.\n     *\n     * @param _clientReferenceTimestamp - The timestamp the client passed to the\n     *  finalizeGame() method, to be stored with the payment details structure.\n     * @param _gameId - The game ID of the game this payment is associated with.\n     *\n     * NOTE: The game must currently be in the PLAYING state.\n     * NOTE: This method sets the game to the GAME_OVER state.\n     * NOTE: This method does NOT make the actual payments.  It just calculates them.\n     * NOTE: The content required for calculating payments comes from the earlier\n     *  calls to addGameRoundResult(), made after each round of play to record \n     *  the details of the round.\n     */\n    function finalizeGame(\n            uint256 _clientReferenceTimestamp,\n            uint256 _gameId \n        )\n            public  \n            onlyIfValidGameIdAndPlayingState(_gameId)\n            whenNotPaused {\n        // The number of game round results must equal the number of players (rounds)\n        //  or we don't have all the information needed to calculate payment\n        //  properly.\n        require(getIsGameReadyToBeFinalized(_gameId), \"(finalizeGame) All the game round results for the game have not been posted and confirmed/mined yet.\");\n        \n        // The number of videos is equal to the number of rounds played.\n        uint256 numVideos = s_mapGameIdToGameResults[_gameId].length;\n        \n        // Change the game to the GAME OVER state or several of the payment function \n        //  calls below will fail because they require the game to be in the game over \n        //  state.\n        changeGameState(_gameId, EnumGameState.GAME_OVER);\n\n        // Calculate the amount due the house.\n\n        // We were advised to multiply first, then divide due to the EVM code's handling of \n        //  division operations and precision.\n        uint256 gameBalance = s_mapGameIdToGame[_gameId].gameBalance;\n        uint256 gameBalanceTemp = gameBalance.mul(pct_house);\n        uint256 housePaymentGwei = gameBalanceTemp.div(100);\n        address houseAddr = s_mapGameIdToGame[_gameId].houseAddr;\n\n        // Record the amount paid to the house.\n        s_mapGameIdToGame[_gameId].gamePaymentsSummary.totalhousePaymentGwei =\n            s_mapGameIdToGame[_gameId].gamePaymentsSummary.totalhousePaymentGwei.add(housePaymentGwei);\n\n        // Schedule the payment to the house.\n        schedulePayment(\n            structPendingPaymentDetails(\n                _clientReferenceTimestamp,\n                _gameId,\n                \"house\", // House payments are not associated with an video ID.\n                houseAddr,\n                housePaymentGwei,\n                EnumPaymentType.HOUSE));\n\n        // Calculate the remaining funds after removing the house percentage.\n        uint256 remainder = s_mapGameIdToGame[_gameId].gameBalance - housePaymentGwei;\n        \n        require(remainder > 0, \"(finalizeGame) The game balance after removing the house percentage is 0 or less.\");\n        \n        uint256 bandPaymentPool = 0;\n        uint256 perBandPayment = 0;\n        uint256 playerPaymentPool = 0;\n        uint256 perVideoPayment = 0;\n        \n        // Calculate the amount of money to be distributed to the bands and the players.\n        if (s_mapGameIdToGame[_gameId].bandDonationPercent == 0)\n        {\n            // Everything goes to the players.\n            playerPaymentPool = remainder;\n            perVideoPayment = playerPaymentPool.div(numVideos);\n        } \n        else if (s_mapGameIdToGame[_gameId].bandDonationPercent == 100)\n        {\n            // Everything goes to the bands.\n            bandPaymentPool = remainder;\n            perBandPayment = bandPaymentPool.div(numVideos);\n        }\n        else\n        {\n            // Split the remainder between the players and the bands according to the \n            //  band donation percentage.\n            bandPaymentPool = remainder.div(100).mul(s_mapGameIdToGame[_gameId].bandDonationPercent);\n            \n            // The band payment pool is distributed evenly across the number of participating bands.\n            perBandPayment = bandPaymentPool.div(numVideos);\n            \n            // Calculate the amount of funds to distributed across the players.\n            playerPaymentPool = remainder.sub(bandPaymentPool);\n            \n            // The per player payment is based on the number of games each player won.  However,\n            //  the amount paid for each video is based on the number of videos in the game.\n            perVideoPayment = playerPaymentPool.div(numVideos);\n        }\n        \n        // Watch out for having no payments at all to make.\n        require(perBandPayment > 0 || perVideoPayment > 0, \"(finalizeGame) There are no payments to be made for this game, given the current amounts.\");\n        \n        // Process the band payments if we have any.\n        if (perBandPayment > 0)\n        {\n            processBandPayments(_clientReferenceTimestamp, _gameId, perBandPayment);\n        }\n        \n        if (perVideoPayment > 0)\n        {\n            // Process the player payments.\n            processPlayerPayments(_clientReferenceTimestamp, _gameId, perVideoPayment);\n        }\n    }\n\n    \n    // ----------------------------- FUNCTIONS: Game creation and management --------------------\n\n    /**\n     * @notice Add a new game to the system.\n     * \n     * @param _requestNonce - The nonce that is given us to associate with the \n     *  game ID we assign to a new game.\n     * @param _gameId - the ID assigned to this new game.\n     * @param _entryFeeGwei - The entry fee to play the game, denominated in Gwei.\n     * @param _bandDonationPercent - The percentage of the pool that goes to the bands.  \n     *  The rest goes to the players, except for the House percentage and that is subtracted \n     *  before all other calculations are done.\n     * @param _gameCreatorAddr - The address of the player that created the game.\n     * @param _gameCreatorVideoId - The ID of the video the game creator submitted\n     *  with the makeGame() request.\n     * @param _videoPlatformId - The ID of the video platform the video belongs to.\n     *\n     * NOTE: We don't use the onlyIfValidGameId modifier here because we have not created the \n     *  game yet and that modifier will fail if it can't find the game in our games map.'\n     */\n    function addNewGame(\n            bytes32 _requestNonce,\n            uint256 _gameId,\n            uint256 _entryFeeGwei,\n            uint256 _bandDonationPercent,\n            address _gameCreatorAddr,\n            bytes32 _gameCreatorVideoId,\n            EnumVideoPlatforms _videoPlatformId)\n                private {\n        // Validate parameters.\n\n        // The request nonce must not be 0.\n        require(_requestNonce.length > 0,  \"(addNewGame) The request nonce is empty.\");\n        \n        // The game ID must be explicitly set.\n        require(_gameId != id_invalid, \"(addNewGame) The game ID must be set.\");\n        \n        // The entry fee must be greater than 0.\n        require(_entryFeeGwei > 0, \"(addNewGame) The entry fee must be greater than 0.\");\n        \n        // The band donation percent must be less than or equal to 100.\n        require(_bandDonationPercent <= 100, \"(addNewGame) The band donation percent must not be greater than 100 percent.\");\n        \n        // The game creator address must not be 0.\n        require(_gameCreatorAddr != address(0), \"(addNewGame) The game creator address must be set.\");\n\n        // The video platform ID must not be 0, or be beyond the range of the IDs.\n        require(_videoPlatformId > EnumVideoPlatforms.NOTSET, \"(addNewGame) The video platform ID must be set.\");\n        require(_videoPlatformId < EnumVideoPlatforms.OUT_OF_RANGE, \"(addNewGame) The video platform ID is outside the acceptable range.\");\n\n        // Save it in our collection.\n        s_mapGameIdToGame[_gameId] = \n            structGame(\n                // Set isExists field to TRUE.\n                true,\n                _requestNonce,\n                _gameId,\n                EnumGameState.NOTSET,\n                // The House address is initially zero.\n                address(0),\n                _entryFeeGwei,\n                _bandDonationPercent,\n                _gameCreatorAddr,\n                _gameCreatorVideoId,\n                _videoPlatformId,\n                // Current number of players.\n                0,\n                // Game balance.\n                0,\n                structGamePayments(0, 0, 0) // Game payments summary.\n            );\n\n        // Save it in our request nonce to game ID collection too\n        //  to facilitate calls to the getGameId() method.\n        s_mapRequestNonceToGameId[_requestNonce] = _gameId;\n\n        // Change the state of the new game to CREATED.\n        changeGameState(_gameId, EnumGameState.CREATED);\n    }\n    \n    /**\n     * @notice Make a payment on behalf of a player/band by the game server (Administrator/owner).\n     * \n     * @param _gameId - The ID Of the game the payment is associated with.\n     * @param _videoId - The ID of the video the payment is associated with.\n     * @param _payeeAddr - The destination address for the payment (i.e.\n     *  the player or band to be paid).\n     * \n     * NOTE: This code was sourced from the Open Zeppelin PullPayment contract from \n     *  the withdrawPayments() method.\n     */\n    function claimPayment(uint256 _gameId, bytes32 _videoId, address _payeeAddr)\n            public \n            onlyOwner\n            onlyIfValidGameIdAndGameOverState(_gameId)\n            whenNotPaused\n            {\n        require(_payeeAddr != address(0), \"(claimPayment) The payee address is not set.\");\n        require(_videoId != \"\", \"(claimPayment) The video ID is not set.\");\n\n        // Create a payment details structure from the input parameters so we can generate\n        //  a mapping key.\n        structPendingPaymentDetails memory pendingPaymentDetails =\n            structPendingPaymentDetails(\n                0,\n                _gameId,\n                _videoId,\n                _payeeAddr,\n                0,\n                EnumPaymentType.NOTSET);\n\n        // Build the mapping key from the pending payment details.\n        bytes32 mapKey = hashPendingPaymentDetails(pendingPaymentDetails);\n\n        // Make sure they have funds waiting for them.\n        pendingPaymentDetails.paymentAmountGwei = s_mapPendingPaymentsByGame[mapKey].paymentAmountGwei;\n        require(pendingPaymentDetails.paymentAmountGwei > 0, \"(claimPayment) In the context of the given game and resource ID, the payee does not have any funds waiting for them.\");\n        \n        // Make sure this contract has enough funds to cover the payment.\n        require(address(this).balance >= pendingPaymentDetails.paymentAmountGwei, \"(claimPayment) The contract does not have enough funds to cover the payment at this time.\");\n\n        // Remove the payment from our claim amount storage.\n        delete s_mapPendingPaymentsByGame[mapKey];\n        \n        // Remove the payment from the pending payments list.\n        removePaidAddressFromPendingPaymentsList(mapKey);\n\n        // Make the payment.\n        _payeeAddr.transfer(pendingPaymentDetails.paymentAmountGwei);\n    }\n    \n    /**\n     * @notice Schedule an escrow payment on behalf of a player/band by the game server\n     *  (Administrator/owner).\n     *\n     * @param _ownerId - The ID of the entity that owns the videos that were \n     *  used in one or more games. (e.g. - A Band's YouTube channel ID if the amounts \n     *  were accrued during games that used videos hosted on YouTube).\n     * \n     * @param _payeeAddr - The destination address for the payment (i.e. \n     *  the band to be paid from escrow).\n     * \n     * NOTE: This code was sourced from the Open Zeppelin PullPayment contract from \n     *  the withdrawPayments() method.\n     */\n    function claimEscrow(\n                bytes32 _ownerId,\n                address _payeeAddr)\n            public \n            onlyOwner\n            whenNotPaused {\n        require(_ownerId.length > 0, \"(claimEscrow) The owner ID is not set.\");\n        require(_payeeAddr != address(0), \"(claimEscrow) The payee address is not set.\");\n\n        // Make sure they have funds waiting for them in escrow.\n        uint256 escrowAmount = s_mapOwnerIdToEscrowAmount[_ownerId];\n        require(escrowAmount > 0, \"(claimEscrow) The owner does not have any funds waiting for them in escrow.\");\n        \n        // Remove the payment from our escrow amount storage.\n        s_mapOwnerIdToEscrowAmount[_ownerId] = 0;\n        \n        // Make sure this contract has enough funds to cover the payment.\n        require(address(this).balance >= escrowAmount, \"(claimEscrow) The contract does not have enough funds to cover the payment.\");\n\n        // Schedule the payment.\n        schedulePayment(\n            structPendingPaymentDetails(\n                // The client side reference timestamp does not apply here.\n                0,\n                // We use a game ID of zero because this is an escrow payment, not tied to a particular game, but\n                //  to the aggregate amount owed to the payee.\n                0,\n                _ownerId,\n                _payeeAddr,\n                escrowAmount,\n                EnumPaymentType.ESCROW_TRANSFER));\n    }\n\n    // ============================== BEGIN: CONFIRMATION CALLS =====================\n\n    // Below are the calls used by the node.JS app to confirm that various contract\n    //  operations have been confirmed/mined by the Ethereum network.\n\n    /**\n     * @notice Web3 Code that must have a dependable way to get the ID for a\n     *  game they recently requested to be made can poll this method every\n     *  few seconds to see if the game was created.  This is a backup plan to\n     *  that of listening for the CreatedNewGame event.\n     *\n     * @param _requestNonce - The request nonce that was given to us \n     *  when makeGame() was called.\n\n     * @return - Returns the game ID of the game that was created \n     *  during the makeGame() call.  Returns 0 if we don't have a record of \n     *  any new game yet for the given once, usually indicating the new game\n     *  has not been written to the distributed ledger yet.\n     */\n    function getGameId(bytes32 _requestNonce)\n            public view\n            returns(uint256) {\n        return s_mapRequestNonceToGameId[_requestNonce];\n    }\n\n    /**\n     * @notice Given a game ID, return the number of game round results\n     *  added to the game so far.\n     *\n     * @return - Returns the total number of game round results added to\n     *  the game so far.\n     */\n    function getNumGameRoundResults(uint256 _gameId)\n        public view\n            onlyIfValidGameId(_gameId)\n            returns (uint256) {\n        return s_mapGameIdToGameResults[_gameId].length;\n    }\n\n    /**\n     * @notice Given a game ID, return the current state for that game.\n     * \n     * @param _gameId - the ID assigned to this new game.\n     * \n     * @return - Returns the current state of the game.  If no \n     *  game exists with the given ID, the value returned weill be \n     *  equal to 0 (id_invalid).  Remember, the first game ID ever \n     *  created is 1, not 0.\n     */\n    function getGameState(uint256 _gameId)\n            public view\n            returns (EnumGameState) {\n        if (s_mapGameIdToGame[_gameId].isExists)\n        {\n            return s_mapGameIdToGame[_gameId].gameState;\n        }\n        else\n        {\n            return EnumGameState.NOTSET;\n        }\n    }\n\n    /**\n     * @notice Given a game ID, return the number of players added\n     *  to the game so far.\n     *\n     * @param _gameId - the ID of the game for this query.\n     *\n     * @return - Returns the total number of players added to the game\n     *  so far.\n     */\n    function getNumPlayers(uint256 _gameId)\n            public view\n            onlyIfValidGameId(_gameId)\n            returns (uint256) {\n        return s_mapGameIdToGame[_gameId].numPlayers;\n    }\n\n    /**\n     * @notice Given a game ID and a round number, if a game round\n     *  result exists for that round number, than just return the\n     *  round number given to us.  If not, return 0, which indicates\n     *  a game round result for that round number was never submitted\n     *  or the Ethereum transaction that did has not been mined/confirmed\n     *  yet.\n     *\n     * @param _gameId - the ID of the game for this query.\n     * @param _roundNum - the desired round number.\n     *\n     * @return - Returns TRUE if a game round result for the given round\n     *  number has been posted, other FALSE is returned.\n     */\n    function getIsGameRoundResultPosted(uint256 _gameId, uint256 _roundNum)\n            public view\n            onlyIfValidGameId(_gameId)\n            returns (bool) {\n        // Parameter validation.\n        require(_roundNum > 0, \"(getIsGameRoundResultPosted) Invalid round number.\");\n\n        // Scan the game round results map for a game round result that bears\n        //  the desired round number\n        for (uint i = 0; i < s_mapGameIdToGameResults[_gameId].length; i++)\n        {\n            // Match?\n            if (s_mapGameIdToGameResults[_gameId][i].roundNum == _roundNum)\n                // Yes.  The given game round result has been posted to the\n                //  desired game.\n                return true;\n        }\n\n        // No.  The given game round result has not been posted to the desired\n        //  game yet, or the Ethereum transaction submitted for that game round\n        //  result has not been mined/confirmed yet.\n        return false;\n    }\n\n    /**\n     * @notice Given a game ID, return TRUE if the game is ready to be \n     *  finalized.  Otherwise return FALSE.\n     *\n     * NOTE: The game must currently be in the PLAYING state.\n     *\n     * @param _gameId - the ID of the game for this query.\n     *\n     * @return - Returns TRUE if the number of game round results\n     *  posted is equal to the number of players in the game.  If TRUE, this\n     *  indicates that all game round results have been posted and that the\n     *  the game is ready for payment processing.  Otherwise FALSE\n     *  is returned.\n     */\n    function getIsGameReadyToBeFinalized(uint256 _gameId)\n            public view\n            onlyIfValidGameIdAndPlayingState(_gameId)\n            returns(bool) {\n        // Is the count of game round results for this game ID equal\n        //  to the number of players in the game?\n        if (s_mapGameIdToPlayers[_gameId].length == s_mapGameIdToGameResults[_gameId].length)\n            // Yes.  The game is ready to have payments processed for it.\n            return true;\n\n            // No.  The game is not ready to have payments processed for it.\n        return false;\n    }\n\n\n    /**\n     * @notice Given a game ID and a player address, return TRUE if\n     *  we have a record of the player having entered the game\n     *\n     * @param _gameId - the ID of the game for this query.\n     * @param _playerAddr - address of the player we are interested in.\n     *\n     * @return - Returns TRUE if the player is in the game, FALSE if not.\n     */\n    function getIsPlayerInGame(uint256 _gameId, address _playerAddr)\n            public view\n            onlyIfValidGameId(_gameId)\n            returns (bool) {\n        require(_playerAddr != address(0), \"(getIsPlayerInGame) The player address is not set.\");\n\n        // Is the player address in the players array for the given game?\n        for (uint i = 0; i < s_mapGameIdToPlayers[_gameId].length; i++)\n        {\n            // Match?\n            if (s_mapGameIdToPlayers[_gameId][i] == _playerAddr)\n                // Yes.  The given player is in the game.\n                return true;\n        }\n\n        // Couldn't find the player address in the players array.\n        return false;\n    }\n\n    /**\n     * @notice Given a game ID, check to see if the house address has been\n     *  set for that game.\n     *\n     * @param _gameId - the ID of the game for this query.\n     *\n     * @return - Return TRUE if the house address has been\n     *  set for the game, FALSE if not.\n     */\n    function getIsHouseAddrSet(uint256 _gameId)\n            public view\n            onlyIfValidGameId(_gameId)\n            returns (bool) {\n        if (s_mapGameIdToGame[_gameId].houseAddr == address(0))\n            return false;\n\n        return true;\n    }\n    \n    /**\n     * @notice Given a game ID and a payee address, return the amount\n     *  of Ether owed to the payee, if any.  This value is the sum \n     *  of payments due to the payee across all games across all\n     *  games.\n     *\n     * @param _gameId - the ID of the game for this query.\n     * @param _payeeAddr - address of the payee we are interested in.\n     *\n     * @return - Returns the amount owed to the payee, or 0 if no\n     *  money is owed to the payee.\n     */\n    function getPlayerBalance(uint256 _gameId, address _payeeAddr)\n            public view\n            onlyIfValidGameId(_gameId)\n            returns (uint256) {\n        require(_payeeAddr != address(0), \"(getPlayerBalance) The player address is not set.\");\n\n        return s_mapAddressToTotalBalance[_payeeAddr];\n    }\n\n    /**\n     * @notice This function walks the linked list of pending payments to get the total count of pending payments\n     *      across all games.\n\n     *  @return - Returns the number of payments still needed to be made by the smart contract.\n     */\n    function getPendingPaymentCount()\n        public view\n        returns(uint256) {\n\n        uint256 countPayments = 0;\n        bytes32 nextPaymentKey = s_firstPendingPaymentKey;\n\n        while (nextPaymentKey != \"\") {\n            countPayments++;\n            nextPaymentKey = s_mapPendingPaymentList[nextPaymentKey].linkToNextPayee;\n        }\n\n        return countPayments;\n    }\n\n    /**\n     *  @notice This function gets the oldest pending payment details from the pending payment linked list.\n     *\n     *  @param _paymentNdx - The index of the payment in the pending payment list the caller wants.\n     *\n     *  @return - Returns a tuple containing the fields of the next pending payment.  If there are no\n     *      pending payments, it returns values for the all the fields that are the same as the\n     *      values for an initialized field corresponding to each type.\n     */\n    function getNextPendingPaymentDetails(uint256 _paymentNdx)\n            public view\n            returns(uint256, uint256, bytes32, address, uint256, uint) {\n\n        // Don't allow really large payment indexes, in case the EVM silently fails the call\n        //  if we consume too much processing time, something we want to protect against\n        //  anyways to protect the EVM from unfair CPU usage.\n        require(_paymentNdx < 1000, \"Payment index is equal to 1000 or greater.  This is not allowed.\");\n\n        uint256 countPayments = 0;\n        bytes32 nextPaymentKey = s_firstPendingPaymentKey;\n\n        while (countPayments < _paymentNdx && nextPaymentKey != \"\") {\n            countPayments++;\n            nextPaymentKey = s_mapPendingPaymentList[nextPaymentKey].linkToNextPayee;\n        }\n\n        if (nextPaymentKey == \"\")\n            // No pending payments or no pending payments at the given payment index.\n            return(0, 0, \"\", address(0), 0, 0);\n\n        structPendingPaymentDetails memory pendingPaymentDetails =\n            s_mapPendingPaymentsByGame[nextPaymentKey];\n\n        return (\n            pendingPaymentDetails.clientReferenceTimestamp,\n            pendingPaymentDetails.gameId,\n            pendingPaymentDetails.videoId,\n            pendingPaymentDetails.payeeAddr,\n            pendingPaymentDetails.paymentAmountGwei,\n            uint(pendingPaymentDetails.paymentType)\n        );\n    }\n\n    /** @notice - This function retrieves the payment summary for a given game ID.  The\n     *  game must be in the GAME_OVER state.\n     *\n     *  @return - Returns a tuple containing the fields contained in the structGamePayments\n     *      field for the desired game.\n     */\n    function getGamePaymentsSummary(uint256 _gameId)\n            public view\n            onlyIfValidGameIdAndGameOverState(_gameId) returns (uint256, uint256, uint256) {\n        return (\n            s_mapGameIdToGame[_gameId].gamePaymentsSummary.totalhousePaymentGwei,\n            s_mapGameIdToGame[_gameId].gamePaymentsSummary.totalBandPaymentsOrEscrows,\n            s_mapGameIdToGame[_gameId].gamePaymentsSummary.totalPlayerPayments);\n    }\n\n    // ============================== END  : CONFIRMATION CALLS =====================\n\n    /**\n     * Returns a game's current state.\n    \n     * This method initializes this contract and as a side effect, makes the caller\n     *  (msg.sender) the owner of this contract.\n     *\n     * NOTE: Whoever calls this method becomes the Administrator of the contract!\n     */\n    /* TODO: Uncomment this function when restoring ZOS version.\n    function initialize() public isInitializer(\"EtherBandBattlesManager\", \"1.0.0\")  {\n        // We inherit from Pausable, so we call its initialize() method with \n        //  the House address as the \"sender\" parameter and that will make the House \n        //  the owner of the contract.\n        //\n        // NOTE: Always call the inherited class initializer() first in case your \n        //  code depends on the creation/initialization of various inherited class\n        //  elements.\n\n        Pausable.initialize(msg.sender);\n        initialize(msg.sender);\n        \n        // Assign the caller of this method as the Administrator of this contract.\n        require(address(msg.sender) != 0, \"(initialize) The message sender address is not set.\");\n    }\n    */\n\n    /**\n     * @notice Monetary amounts should always be uint256 and be sent in GWei.  See the\n     *  toWei() and toEth() Web3.js functions.  See the Game contract initialize()\n     *  method for details on the parameters used in this method, since they\n     *  share the same call signature.\n    \n     * This function makes a new game.  See the addNewGame() method for parameter details\n     *  except for the ID parameter, since that element is created during this method call.\n     *  Only the contract administrator is allowed to make games.\n     * \n     */\n    function makeGame(\n            bytes32 _requestNonce,\n            uint256 _entryFeeGwei,\n            uint256 _bandDonationPercent,\n            address _gameCreatorAddr,\n            bytes32 _gameCreatorVideoId,\n            EnumVideoPlatforms _videoPlatformId)\n                public payable\n                whenNotPaused {\n        require(_gameCreatorVideoId.length > 0, \"(makeGame) The video ID submitted by the game creator must not be empty.\");\n\n        // Create a new ID for the new game.  We start the ID series at 1 not 0\n        //  So we can detect cases where the ID was neglected to be set.  That \n        //  is why we increment the ID before using the value of s_numGamesCreatedAsId\n        //  field as an ID, not after.\n        s_numGamesCreatedAsId = s_numGamesCreatedAsId.add(1);\n        \n        uint256 gameId = s_numGamesCreatedAsId;\n\n        s_lastGameIdCreated = gameId;\n\n        // Add a new game using the new ID and the other parameters given to us.\n        addNewGame(\n                _requestNonce,\n                // Use the new ID we just created as the game ID.\n                gameId,\n                _entryFeeGwei,\n                _bandDonationPercent,\n                _gameCreatorAddr,\n                _gameCreatorVideoId,\n                _videoPlatformId);\n\n        // Emit a NewGameCreated event.  We return the request nonce so Web3 code \n        //  listening for the event can tie the game ID back to the request that \n        //  generated it.\n        //\n        // IMPORTANT: Given the vagaries of the event generation on the Ethereum\n        //  network, any Web3 code that is dependent on getting the game ID event \n        //  should also poll the getGameId() method every few seconds as a backup\n        //  strategy to get game IDs.\n        // emit CreateNewGame(_requestNonce, gameId);\n            \n        // Add the game creator to the new Game.  addPlayer() will  record their \n        //  entry fee as paid too.  Remember, if this is moved to a separate\n        //  addPlayer() transaction, like for the non-game creator players,\n        //  we will have to do extra work to prevent players from entering the\n        //  game until we know the game has been created since you can't add\n        //  players to a game that doesn't exist.\n        addPlayer(gameId, _gameCreatorAddr, _gameCreatorVideoId);\n    }\n\n\n    /**\n     * @notice This method sets the house address for a game.  It must be called\n     *      before the start game call is made or that call will fail.\n     */\n    function setHouseAddress(uint256 _gameId, address _houseAddr) public\n            // TODO: Remove this when done debugging.\n            onlyToDebug\n            onlyOwner\n            onlyIfValidGameId(_gameId)\n            onlyIfCreatedState(_gameId) {\n        require(_houseAddr != address(0), \"The house address is zero.\");\n        s_mapGameIdToGame[_gameId].houseAddr = _houseAddr;\n    }\n    \n    /**\n     * @notice This method starts the game.  Only the House can start a game and the \n     *  game must currently be in the CREATED state.\n     */\n    function startGame(uint256 _gameId) public\n            onlyIfValidGameId(_gameId)\n            onlyIfHouseAddrSetAndIsSender(_gameId)\n            onlyIfCreatedState(_gameId)\n            whenNotPaused {\n\n        // The game ID must be explicitly set.\n        require(_gameId != id_invalid, \"(startGame) The game ID must be set.\");\n\n        bool isExistingGame = s_mapGameIdToGame[_gameId].isExists;\n\n        // The game ID must be valid.\n        require(isExistingGame == true, \"The game ID provided is invalid or belongs to a deleted game.\");\n\n        // Just change the state to playing.\n        changeGameState(_gameId, EnumGameState.PLAYING);\n    }\n\n    /**\n     * @notice This function returns the number of games created since the\n     *  the contracts inception.\n     *\n     * @return - Returns the total number of games ever created.\n     */\n    function getNumGamesCreated()\n        public view\n        returns(uint256) {\n        return s_numGamesCreatedAsId;\n    }\n\n    /** @notice This function tests returning a tuple to an external caller.  It returns\n     *   a tuple containing an address and a number.\n     */\n    function testReturnTuple()\n        public pure\n        returns (address, uint256)\n    {\n        return (address(1234), 5678);\n    }\n\n    /**\n     * @notice This method is for testing the technique of sending a zero gas signed transaction\n     *  to a method with VIEW visibility.\n\n     *  @return - Returns the address found in the msg.sender method.\n     */\n    function testViewMethodAsSendMethod()\n        public view\n        returns(address) {\n\n        return msg.sender;\n    }\n\n    // ============================ BEGIN: ECRECOVER Test Code =======================\n\n    struct structEcRecoverTestResults  {\n        bytes32 message;\n        uint8 v;\n        bytes32 r;\n        bytes32 s;\n        address signer;\n    }\n\n    structEcRecoverTestResults s_structEcRecoverTestResults;\n    address s_theSigner;\n\n    /**\n     * @notice This method is for testing the technique of pulling out the Ethereum address\n     *  from a signed element.  This is method requires a SEND transaction because it\n     *  stores the results of the call to the smart contract.\n     *  @param _hashedMessage - The hash of the message being tested.\n     *  @param _v - The \"v\" element of the signature for the message.\n     *  @param _r - The \"r\" element of the signature for the message.\n     *  @param _s - The \"s\" element of the signature for the message.\n     *\n     *  @return - Returns the address decoded from the given input parameters.\n     */\n    function testEcRecovery(bytes32 _hashedMessage, uint8 _v, bytes32 _r, bytes32 _s)\n        public\n        returns (address) {\n        // This prefix is needed to be in harmony with the Ethereum client as far as the format\n        //  expected needed by the ecrecover function.  The \"32\" at the end of the prefix is\n        //  the length of the incoming message parameter since it is a bytes32 value.\n        bytes memory prefix = \"\\x19Ethereum Signed Message:\\n32\";\n\n        // Apply the hashing function to the message.\n        bytes32 prefixedHash = keccak256(abi.encodePacked(prefix, _hashedMessage));\n\n        // Recover the Ethereum address of the message sender.\n        address theSigner = ecrecover(prefixedHash, _v, _r, _s);\n\n        // If the ecrecover function fails then theSigner will contain address(0);\n        require(theSigner != address(0), \"The ecrecover() function failed.  Malformed input?\");\n        \n        // Save the results so we can use the getter method below to inspect them.\n        s_structEcRecoverTestResults.message = _hashedMessage;\n        s_structEcRecoverTestResults.v = _v;\n        s_structEcRecoverTestResults.r = _r;\n        s_structEcRecoverTestResults.s = _s;\n\n        s_structEcRecoverTestResults.signer = theSigner;\n\n        s_theSigner = theSigner;\n\n        // Return the Ethereum address of the signer.\n        return theSigner;\n    }\n\n    /**\n     * @notice This method returns the input and output data involved with the last testEcRecovery() call.\n     *\n     * @return See above.\n     */\n    function getLastTestEcRecoverResults()\n        public view\n        returns (bytes32, uint8, bytes32, bytes32, address, address) {\n        \n        return (\n            s_structEcRecoverTestResults.message,\n            s_structEcRecoverTestResults.v,\n            s_structEcRecoverTestResults.r,\n            s_structEcRecoverTestResults.s,\n            s_structEcRecoverTestResults.signer,\n            s_theSigner\n        );\n    }\n\n    /**\n     * @notice Test making a payment.  This payable function takes an address and pays\n     *  that address the amount of value that was provided by the caller.\n     *\n     * @param _payeeAddr - The destination address for the payment.\n     */\n    function testPayment(address _payeeAddr)\n            payable\n            public\n            onlyOwner\n            {\n        require(_payeeAddr != address(0), \"(testPayment) The payee address is not set.\");\n        require(msg.value != 0, \"(testPayment) The amount of value accompanying the transaction is zero.\");\n\n        // Make the payment.\n        _payeeAddr.transfer(msg.value);\n    }\n\n    // ============================ END  : ECRECOVER Test Code =======================\n\n}\n\n\n",
  "sourcePath": "/home/robert/Documents/GitHub/ME/theta-band-battles/solidity/contracts/EtherBandBattlesManager.sol",
  "compiler": {
    "name": "solc",
    "version": "0.4.23+commit.124ca40d.Emscripten.clang"
  },
  "schemaVersion": "3.3.3",
  "updatedAt": "2021-02-10T13:41:46.658Z",
  "networkType": "ethereum",
  "devdoc": {
    "author": "Robert Oschler",
    "methods": {
      "addGameRoundResult(uint256,uint256,bytes32,bytes32,address,address)": {
        "params": {
          "_bandAddr": "- The address of the band the video belongs to.  May be 0  if we don't have it yet.'      * STATE: The game must be in the PLAYING state to add game round results and the sender must be the house address (which is usually the game server).",
          "_gameId": "- The ID Of the game that the new player should be added to.",
          "_ownerId": "- The ID of the entity that the video belongs to.",
          "_roundNum": "- The ordinal round number that was just played.  1-based so the value given MUST be greater than 0.",
          "_videoId": "- The ID of the video that was played during the round.",
          "_winnerAddr": "- The address of the player that won the round."
        }
      },
      "addPlayer(uint256,address,bytes32)": {
        "params": {
          "_gameId": "- The ID Of the game that the new player should be added to.",
          "_playerAddr": "- The address of the new player.",
          "_videoId": "- The ID of the video the player submitted for the game.      * STATE: The game must be in the CREATED state to add players.  Once the game begins, no new players are allowed."
        }
      },
      "claimEscrow(bytes32,address)": {
        "params": {
          "_ownerId": "- The ID of the entity that owns the videos that were  used in one or more games. (e.g. - A Band's YouTube channel ID if the amounts  were accrued during games that used videos hosted on YouTube). ",
          "_payeeAddr": "- The destination address for the payment (i.e.  the band to be paid from escrow).      * NOTE: This code was sourced from the Open Zeppelin PullPayment contract from  the withdrawPayments() method."
        }
      },
      "claimPayment(uint256,bytes32,address)": {
        "params": {
          "_gameId": "- The ID Of the game the payment is associated with.",
          "_payeeAddr": "- The destination address for the payment (i.e. the player or band to be paid).      * NOTE: This code was sourced from the Open Zeppelin PullPayment contract from  the withdrawPayments() method.",
          "_videoId": "- The ID of the video the payment is associated with."
        }
      },
      "finalizeGame(uint256,uint256)": {
        "params": {
          "_clientReferenceTimestamp": "- The timestamp the client passed to the finalizeGame() method, to be stored with the payment details structure.",
          "_gameId": "- The game ID of the game this payment is associated with.     * NOTE: The game must currently be in the PLAYING state. NOTE: This method sets the game to the GAME_OVER state. NOTE: This method does NOT make the actual payments.  It just calculates them. NOTE: The content required for calculating payments comes from the earlier calls to addGameRoundResult(), made after each round of play to record  the details of the round."
        }
      },
      "getGameId(bytes32)": {
        "params": {
          "_requestNonce": "- The request nonce that was given to us  when makeGame() was called."
        },
        "return": "- Returns the game ID of the game that was created  during the makeGame() call.  Returns 0 if we don't have a record of  any new game yet for the given once, usually indicating the new game has not been written to the distributed ledger yet."
      },
      "getGamePaymentsSummary(uint256)": {
        "return": "- Returns a tuple containing the fields contained in the structGamePayments     field for the desired game."
      },
      "getGameState(uint256)": {
        "params": {
          "_gameId": "- the ID assigned to this new game. "
        },
        "return": "- Returns the current state of the game.  If no  game exists with the given ID, the value returned weill be  equal to 0 (id_invalid).  Remember, the first game ID ever  created is 1, not 0."
      },
      "getIsGameReadyToBeFinalized(uint256)": {
        "params": {
          "_gameId": "- the ID of the game for this query."
        },
        "return": "- Returns TRUE if the number of game round results posted is equal to the number of players in the game.  If TRUE, this indicates that all game round results have been posted and that the the game is ready for payment processing.  Otherwise FALSE is returned."
      },
      "getIsGameRoundResultPosted(uint256,uint256)": {
        "params": {
          "_gameId": "- the ID of the game for this query.",
          "_roundNum": "- the desired round number."
        },
        "return": "- Returns TRUE if a game round result for the given round number has been posted, other FALSE is returned."
      },
      "getIsHouseAddrSet(uint256)": {
        "params": {
          "_gameId": "- the ID of the game for this query."
        },
        "return": "- Return TRUE if the house address has been set for the game, FALSE if not."
      },
      "getIsPlayerInGame(uint256,address)": {
        "params": {
          "_gameId": "- the ID of the game for this query.",
          "_playerAddr": "- address of the player we are interested in."
        },
        "return": "- Returns TRUE if the player is in the game, FALSE if not."
      },
      "getLastTestEcRecoverResults()": {
        "return": "See above."
      },
      "getNextPendingPaymentDetails(uint256)": {
        "params": {
          "_paymentNdx": "- The index of the payment in the pending payment list the caller wants."
        },
        "return": "- Returns a tuple containing the fields of the next pending payment.  If there are no     pending payments, it returns values for the all the fields that are the same as the     values for an initialized field corresponding to each type."
      },
      "getNumGameRoundResults(uint256)": {
        "return": "- Returns the total number of game round results added to the game so far."
      },
      "getNumGamesCreated()": {
        "return": "- Returns the total number of games ever created."
      },
      "getNumPlayers(uint256)": {
        "params": {
          "_gameId": "- the ID of the game for this query."
        },
        "return": "- Returns the total number of players added to the game so far."
      },
      "getPendingPaymentCount()": {
        "return": "- Returns the number of payments still needed to be made by the smart contract."
      },
      "getPlayerBalance(uint256,address)": {
        "params": {
          "_gameId": "- the ID of the game for this query.",
          "_payeeAddr": "- address of the payee we are interested in."
        },
        "return": "- Returns the amount owed to the payee, or 0 if no money is owed to the payee."
      },
      "pause()": {
        "details": "called by the owner to pause, triggers stopped state"
      },
      "testEcRecovery(bytes32,uint8,bytes32,bytes32)": {
        "params": {
          "_hashedMessage": "- The hash of the message being tested.",
          "_r": "- The \"r\" element of the signature for the message.",
          "_s": "- The \"s\" element of the signature for the message.",
          "_v": "- The \"v\" element of the signature for the message."
        },
        "return": "- Returns the address decoded from the given input parameters."
      },
      "testPayment(address)": {
        "params": {
          "_payeeAddr": "- The destination address for the payment."
        }
      },
      "testViewMethodAsSendMethod()": {
        "return": "- Returns the address found in the msg.sender method."
      },
      "transferOwnership(address)": {
        "details": "Allows the current owner to transfer control of the contract to a newOwner.",
        "params": {
          "newOwner": "The address to transfer ownership to."
        }
      },
      "unpause()": {
        "details": "called by the owner to unpause, returns to normal state"
      }
    },
    "title": "The EtherBandBattlesManager factory contract."
  },
  "userdoc": {
    "methods": {
      "addGameRoundResult(uint256,uint256,bytes32,bytes32,address,address)": {
        "notice": "Add the results of a round of play to the game. NOTE: Any attempt to add more game round results to the game than there are rounds will be rejected."
      },
      "addPlayer(uint256,address,bytes32)": {
        "notice": "Add a new player to the game.  Callable only by the House. "
      },
      "claimEscrow(bytes32,address)": {
        "notice": "Schedule an escrow payment on behalf of a player/band by the game server (Administrator/owner)."
      },
      "claimPayment(uint256,bytes32,address)": {
        "notice": "Make a payment on behalf of a player/band by the game server (Administrator/owner). "
      },
      "finalizeGame(uint256,uint256)": {
        "notice": "Determine the payments to the bands and players by calculating and then storing the amount due them in the claims map.  For bands that we don't find an address for in the band addresses array, put the amount in escrow  for them, using the owner ID associated with a given ID as the escrow  key."
      },
      "getGameId(bytes32)": {
        "notice": "Web3 Code that must have a dependable way to get the ID for a game they recently requested to be made can poll this method every few seconds to see if the game was created.  This is a backup plan to that of listening for the CreatedNewGame event."
      },
      "getGamePaymentsSummary(uint256)": {
        "notice": "- This function retrieves the payment summary for a given game ID.  The game must be in the GAME_OVER state."
      },
      "getGameState(uint256)": {
        "notice": "Given a game ID, return the current state for that game. "
      },
      "getIsGameReadyToBeFinalized(uint256)": {
        "notice": "Given a game ID, return TRUE if the game is ready to be  finalized.  Otherwise return FALSE.     * NOTE: The game must currently be in the PLAYING state."
      },
      "getIsGameRoundResultPosted(uint256,uint256)": {
        "notice": "Given a game ID and a round number, if a game round result exists for that round number, than just return the round number given to us.  If not, return 0, which indicates a game round result for that round number was never submitted or the Ethereum transaction that did has not been mined/confirmed yet."
      },
      "getIsHouseAddrSet(uint256)": {
        "notice": "Given a game ID, check to see if the house address has been set for that game."
      },
      "getIsPlayerInGame(uint256,address)": {
        "notice": "Given a game ID and a player address, return TRUE if we have a record of the player having entered the game"
      },
      "getLastTestEcRecoverResults()": {
        "notice": "This method returns the input and output data involved with the last testEcRecovery() call."
      },
      "getNextPendingPaymentDetails(uint256)": {
        "notice": "This function gets the oldest pending payment details from the pending payment linked list."
      },
      "getNumGameRoundResults(uint256)": {
        "notice": "Given a game ID, return the number of game round results added to the game so far."
      },
      "getNumGamesCreated()": {
        "notice": "This function returns the number of games created since the the contracts inception."
      },
      "getNumPlayers(uint256)": {
        "notice": "Given a game ID, return the number of players added to the game so far."
      },
      "getPendingPaymentCount()": {
        "notice": "This function walks the linked list of pending payments to get the total count of pending payments     across all games."
      },
      "getPlayerBalance(uint256,address)": {
        "notice": "Given a game ID and a payee address, return the amount of Ether owed to the payee, if any.  This value is the sum  of payments due to the payee across all games across all games."
      },
      "makeGame(bytes32,uint256,uint256,address,bytes32,uint8)": {
        "notice": "Monetary amounts should always be uint256 and be sent in GWei.  See the toWei() and toEth() Web3.js functions.  See the Game contract initialize() method for details on the parameters used in this method, since they share the same call signature. This function makes a new game.  See the addNewGame() method for parameter details except for the ID parameter, since that element is created during this method call. Only the contract administrator is allowed to make games.      "
      },
      "setHouseAddress(uint256,address)": {
        "notice": "This method sets the house address for a game.  It must be called     before the start game call is made or that call will fail."
      },
      "startGame(uint256)": {
        "notice": "This method starts the game.  Only the House can start a game and the  game must currently be in the CREATED state."
      },
      "testEcRecovery(bytes32,uint8,bytes32,bytes32)": {
        "notice": "This method is for testing the technique of pulling out the Ethereum address from a signed element.  This is method requires a SEND transaction because it stores the results of the call to the smart contract."
      },
      "testPayment(address)": {
        "notice": "Test making a payment.  This payable function takes an address and pays that address the amount of value that was provided by the caller."
      },
      "testReturnTuple()": {
        "notice": "This function tests returning a tuple to an external caller.  It returns  a tuple containing an address and a number."
      },
      "testViewMethodAsSendMethod()": {
        "notice": "This method is for testing the technique of sending a zero gas signed transaction to a method with VIEW visibility."
      }
    }
  }
}